:020000022000DC
:10600000D087002071A802002B9704005DA8020031
:106010005DA802005DA802005DA80200000000006B
:1060200000000000000000000000000081A9020044
:106030005DA8020000000000F1A802005DA80200B7
:1060400091AB020085C9030091AB020091AB020045
:1060500091AB020091AB020091AB020091AB020048
:1060600091AB020091AB020091AB020091AB020038
:1060700091AB020091AB020091AB020091AB020028
:1060800091AB020091AB020091AB020091AB020018
:1060900091AB020091AB020091AB020091AB020008
:1060A00091AB020091AB020091AB020091AB0200F8
:1060B00091AB020091AB020091AB020091AB0200E8
:1060C00091AB020091AB020091AB020091AB0200D8
:1060D00091AB020091AB020091AB020091AB0200C8
:1060E00091AB020091AB020091AB020091AB0200B8
:1060F00091AB020091AB020091AB020091AB0200A8
:1061000053B94AB9002908BF00281CBF4FF0FF311E
:106110004FF0FF3000F00CB8ADF1080C6DE904CE83
:1061200000F022F8DDF804E0DDE9022304B0704756
:10613000704700BF10F8012B11F8013B012A28BF5E
:106140009A42F7D0D01A7047034611F8012B03F892
:10615000012B002AF9D17047034613F8012B002ABE
:10616000FBD1181A013870472DE9F04786468C4656
:106170000846089E154674461946002B40F0C2801A
:106180008542B2FA82F245D94AB1C2F1200300FA3F
:1061900002FC2EFA03F3954043EA0C0C94404FEABC
:1061A000154EA8B2BCFBFEF8230C0EFB18CC08FB66
:1061B00000F943EA0C43994528D9EB1808F1FF3759
:1061C00004D2994502D9A8F102072B44A3EB090395
:1061D000A4B2B3FBFEFC0EFB1C330CFB00F044EA44
:1061E0000344A04214D92C190CF1FF3304D2A0426D
:1061F00002D9ACF102032C44241A43EA07401EB131
:10620000D440002334607360BDE8F0874746DDE783
:106210006346F1E792BB431B01214FEA154EAFB233
:10622000B3FBFEFC200C0EFB1C330CFB07F840EA12
:106230000343984562D9EB180CF1FF3004D298451E
:1062400002D9ACF102002B44A3EB0803A4B2B3FBC8
:10625000FEFC0EFB1C330CFB07F744EA0344A74289
:106260004ED92C190CF1FF3304D2A74202D9ACF15C
:1062700002032C44E41B43EA0040C0E7C2F12003C0
:1062800020FA03F1954090402EFA03F303434FEABE
:10629000154EAFB2B1FBFEFC0EFB1C10190C0CFB33
:1062A00007F841EA0041884504FA02F422D9691846
:1062B0000CF1FF3004D2884502D9ACF10200294428
:1062C000A1EB08019BB2B1FBFEFC0EFB1C110CFB09
:1062D00007F743EA01439F420ED9EB180CF1FF3157
:1062E00004D29F4202D9ACF102012B44DB1B41EAEC
:1062F000004192E76046E3E76146F7E76046A3E7BF
:106300006346B7E7834206D916B9002108467BE702
:10631000C6E900E0F9E7B3FA83F78FB9834201D306
:10632000724508D8BEEB020460EB030301209C46D3
:106330001EB9002168E73846FAE7C6E9004CF8E7DD
:10634000C7F1200CBB4022FA0CF41C432EFA0CF1CE
:1063500020FA0CF3B84001434FEA14490EFA07F54E
:10636000B3FBF9F81FFA84FE09FB18300B0C08FB8D
:106370000EFA43EA00439A4502FA07F240D9E318BD
:1063800008F1FF3004D29A4502D9A8F10200234453
:10639000A3EB0A0389B2B3FBF9F809FB183308FB36
:1063A0000EFE41EA03418E452CD9611808F1FF33F6
:1063B00004D28E4502D9A8F10203214443EA0040E9
:1063C000A0FB0298A1EB0E014145CE46434602D305
:1063D00006D14D4504D2B9EB020E68EB0403013837
:1063E000002EA6D0B5EB0E0261EB030101FA0CFC06
:1063F00022FA07F34CEA0303F940C6E9003198E7B3
:106400004046C5E74346D9E7F7B5002101AA40F663
:10641000034005F09DFB0446002869D10198C3683C
:106420001B788BB9BFF35B8FB94B1A68BFF35B8FD7
:1064300002F00902BFF35B8F53E8001F43E800241A
:10644000002CF9D1BFF35B8F04F006FE01AA0021F6
:1064500041F2030005F07CFB0446002848D1019A74
:10646000AC4DD168D1F80100D1F8051005F17803E1
:1064700003C3104604F0F0FD214601AA41F20100D9
:1064800005F066FB044698BB0198C3685A7885F806
:1064900070205A88A5F872201A7985F87120B3F80F
:1064A0000720A5F87420B3F80530A5F8763004F07D
:1064B000D3FD214601AA41F2020005F049FB044642
:1064C000B0B9019FFA6805F18006531C4132186883
:1064D0005968344603C4083393422646F7D13846F8
:1064E00004F0BAFD95F87C305B0604D46FF012041A
:1064F000204603B0F0BD01AA002142F2030005F0DE
:1065000027FB04460028F3D1019B834EDA68D2F8BA
:106510000100D2F8051003C6184604F09DFD21467F
:1065200001AA42F2020005F013FB04460028DFD165
:10653000019CE368B3F8012091B249B1D97839B12F
:10654000A5F80421DA78114606F1280028F0AAFC03
:10655000204604F081FD95F87C601F2316F020068C
:10656000A5F8203118D1022140F66D4005F072F9EE
:106570000446002800F0C48002210C3023F085F985
:106580000123037046702146324640F66D4005F007
:10659000DFFA04460028ABD195F89C301F0712D5CE
:1065A00001AA002142F21C0005F0D2FA044600289C
:1065B0009ED10198C368D3F80120D3F80530C5E90E
:1065C000382304F049FD95F8D8309E0624D50DF106
:1065D0000201684623F093FD0446002888D1042177
:1065E00042F2240005F036F90646002800F08880C3
:1065F00004210C3023F049F9BDF800300380BDF8C8
:10660000023043802246314642F2240005F0A0FACF
:10661000044600287FF46CAF95F8D8305C0610D59E
:1066200001AA002142F22A0005F092FA044600284D
:106630007FF45EAF0198C3685B7885F8223104F07F
:106640000BFD082142F2010005F004F90446002880
:1066500056D008210C3023F018F995F8D81011F015
:10666000400F024640F2022308BF032388074CBFB5
:1066700043F02C0043F00C0095F8D9308F0648BF4A
:1066800040F0400013F0090F18BF40F40060CE073F
:1066900048BF40F01000002123F062FB2146002299
:1066A00042F2010005F054FA044600287FF420AFBE
:1066B00095F87C30B5F80411980624D4C9B901AA1C
:1066C00041F2050005F044FA044600287FF410AFBB
:1066D000B5F80431019C4BB9E368B3F80120A5F883
:1066E00004219A880D48114628F0DCFB204604F06E
:1066F000B3FC082140F6014005F0ACF8044678B937
:106700006FF06804F4E60029F3D16FF00404EFE6BB
:10671000D400002000000020D80000200801002044
:1067200008210C3023F0B1F895F8D830D90702468B
:1067300053BF4FF000512CA1D1E90001284823F0AC
:106740000FFB2146002240F6014005F001FA044605
:1067500000287FF4CDAE014601AA4FF6014005F0B6
:10676000F7F9044620BB019804F076FC214601AA03
:106770004FF6024005F0ECF90446C8B90198C36829
:10678000B3F80130A5F8C13004F066FC95F8C130CB
:106790005B070DD501AA21464FF6034005F0D8F955
:1067A00030B90198C3685B7885F8C03004F054FCB8
:1067B00023F07CFE044600287FF49AAE07F034FAFA
:1067C000044600287FF494AEEB79002B3FF490AEA2
:1067D0000821044823F0FEF905F00AF988E600BF15
:1067E00010880002D4000020908800020080002061
:1067F0002DE9F843D0E90738856903EB08042F3405
:10680000A5420F46164619D8DFF87080A3FB080191
:1068100017A3D3E90023FFF773FC0346601BA0FB1B
:10682000080123F07F4412A3D3E90023FFF768FC9B
:1068300020F07F403C603060BDE8F883DFF83C909A
:106840000BA3D3E90023A5FB0901FFF759FC20F0B6
:106850007F4409480A2106A3D3E90023E8FB090184
:10686000FFF74EFC20F07F403C603060BDE8F883CD
:106870008D49FD1A0700000000166BF100CA9A3B13
:106880009FED097B0E4B0F4A0F4983ED007B9FED77
:10689000087B82ED007B9FED087B0C4B002281ED95
:1068A000007B1A600DF004BCFFFFFFFFFF1F00001C
:1068B00000000000000000001F00000000000000B9
:1068C000900100206814002088010020DC300020A6
:1068D000002800F046812DE9F04FC94C94F86A2059
:1068E00012F001058DB040F0788194F82500FF2367
:1068F00000F0030084F8263015F01EFC94F86A00BE
:10690000420727D494F8292094F8353004EB82020A
:1069100004EB8303D66AD3F8388086B1B848314691
:106920000FF0A0F933785B0605D506210AF052FB7B
:10693000002800F05481B24841460FF093F93378B3
:1069400013F00E0F40F09E80236A93B10C200DB01F
:10695000BDE8F08F2A4604F16B01C0F3C00015F0CA
:1069600063FDFF2884F82600CCD0284615F0FEFBF6
:10697000C8E70CF075FE8146002800F054810CF049
:106980007BFE8246002800F04B810FF06BFC054631
:10699000002800F04A81D0F894004FF6FF732B8650
:1069A00005F11C0B002800F0208105F1880205F19B
:1069B00084010AF01BFBB5F8823023F4EF6323F067
:1069C000070343F48C7343F00103A5F8823095F874
:1069D000433003F03F0363F07F0385F8433095F8BD
:1069E0009A3023F0070385F89A3095F8483023F061
:1069F0000F03002785F848304FF4C023C5F89831BD
:106A00002846C5E91577C5F89470A5F8987085F8FB
:106A10004570EF86C5F83A70EF65A5F89E71A5F848
:106A2000947111F069FD85F86071C5F864910FF0FB
:106A3000ADFE95F8A43160F3020385F8A4310FF0A0
:106A4000ABFE95F8A43160F3C50385F8A43195F841
:106A5000903167F3410385F890310121284610F009
:106A6000B3FA05F1E00011F01FFBC4E9189AC4F86D
:106A700020B0C5E905772F70ED6116F0B7FD00284D
:106A800040F0AF8094F824300121C3F342030DF1AC
:106A90002B008DF82B300AF047FC0246002862D00C
:106AA00098F8011030460EF097FE31235549A36047
:106AB000554BB4F86870A0FB01010025C01841F1E6
:106AC00007014DA3D3E90023C4E90555257065608E
:106AD000E560FFF715FB20610BF0E6FE00F1090809
:106AE0003FB9357805F00F05A5F10105B5FA85F533
:106AF0006D0994F82400236965F3000010F0010586
:106B000084F8240036D0414A099200201060022502
:106B10003F4A404F04930BAE019305920321CDE908
:106B20000200069443460090089607972A460B9564
:106B30000BF0BCFD31460CF04FFEA0B93649059173
:106B40004AF2D8330093CDE90300CDE9010007975D
:106B5000089606944346012203210B950BF08AFD0B
:106B60002EE00EF089BD236A002B3FF4EFAE0EF04D
:106B70003FFDEBE6254A2948049303F247130694A8
:106B8000029591211360A7FB000301FB0731214B04
:106B900007931F4B05934FF6FF7309920227039348
:106BA0000BAE15A3D3E900230B970896FFF7A8FABD
:106BB0004346CDE900503A46284603210BF076FDC6
:106BC00031460CF009FE0028CDD194F86A3001203E
:106BD000034384F86A3015F091FA0020B7E61220DA
:106BE000B5E60EF005FD0320B1E605F18C00C5F811
:106BF0009400DAE6AFF300808D49FD1A070000002B
:106C00001431002000CA9A3B8C49FD1A083100203B
:106C1000555803000D2A030039530300002AE78466
:106C200048460CF023FD072091E650460CF02AFD63
:106C300048460CF01BFDF6E770B590F824308AB09A
:106C4000C3F342030D46044601210DF1230016460D
:106C50008DF823300AF068FB7178024628460EF062
:106C6000BBFD1F491F4AA0FB0131981841F10701E4
:106C700019A3D3E90023FFF743FA23699842054695
:106C800021D21B1A00220192174A0293174BA21A13
:106C9000A3FB02320221920900230A4409AE0991A2
:106CA00013490591CDE903330321D2B2069600932F
:106CB00018460BF05BFD31460CF08EFD38B92561AE
:106CC00000200AB070BDFBD9C21A0023DBE70C20FC
:106CD0000AB070BDAFF300808D49FD1A07000000B7
:106CE00000CA9A3B8C49FD1A1431002009CB3D8D16
:106CF0000D2A0300000000002DE9F04F06468DB07C
:106D00008A46012002219946154618F00DFC002202
:106D10000B90022101200AF0B9F93B494FF4D872D7
:106D200030460AF043F9C71C384B0093FFB2019676
:106D30004B463A46012100200BF072FD10F0FD0F8A
:106D40000ED0334A3349344840F68F0321F0F8FD22
:106D5000002383F31188BFF36F8F0323184602DFEC
:106D60002E4CA5FB044526A3D3E900232046294643
:106D7000FFF7C6F90896069633690493284B20F06E
:106D80007F48A8FB0331E01A264B07934FF0070218
:106D9000254B059302FB08114FF6FE7365EB0101CD
:106DA00003934FF47A720023FFF7AAF94FF0000B18
:106DB000CDE90180CDF800A04B463A460121584666
:106DC0000BF058FC10F0FD0F0DD0114A114912487C
:106DD00040F6A40321F0B4FD8BF31188BFF36F8F4D
:106DE0000323184602DF0B9B13B90DB0BDE8F08FEB
:106DF0000122022110460DB0BDE8F04F0AF046B95D
:106E00008D49FD1A07000000701400200562030080
:106E10008C120500501305006C0D050000CA9A3B4A
:106E20008D49FD1AA56103002DB603000000000086
:106E30002DE9F0418468228E4FF6FF739A428CB0A0
:106E400045D00546204611F0CDFD2B7D012B00F0ED
:106E50002281022B00F01581002B00F0F48094F8C1
:106E60006061002E40F010812B8A678F94F94320D7
:106E7000CDE90A6673B3002AC0F25A810023A4F850
:106E80009A31AA7C238FFD1802F003030135012BF0
:106E9000ADB23BD0B4F89E31002B00F005819D428D
:106EA00080F059815B1B9BB20022062BA4F89E3117
:106EB000628740F2F68094F943309342C0F25081E9
:106EC000002326E09DF8271020460FF043FD0CB06C
:106ED000BDE8F081002AB8BF84F88561238FAA7CC1
:106EE000FD1802F003030135012BADB20ED0B4F84A
:106EF0009A31002BCED0AB4240F23C815B1BA4F810
:106F00009A31B4F89E31002BC9D102E00023A4F8D5
:106F10009E3194F8482063F3820284F84820294681
:106F20000DF12702204611F023FB7430CAD0B4F8CB
:106F300098312BB1AB4240F2EC805B1BA4F8983146
:106F4000B4F894312BB1AB4240F2DA805B1BA4F869
:106F50009431658F16B9AF4200F0C9800135ADB2EA
:106F600094F8DD3013F0010731D1DDE90A130A4648
:106F7000002B40F0CC80002900F0BB801F46184653
:106F8000228EE4690694CDE9035603329A4D0290AD
:106F9000CDE90017D2B20121002005950BF0E6FBE8
:106FA00010F0FD0F93D00CF041FC84428FD0934A37
:106FB000934994484FF4AE6321F0C2FC002383F35D
:106FC0001188BFF36F8F0323184602DF7FE794F920
:106FD00043206FF30003002A84F8DD307FDB94F850
:106FE0008200C0F3C00100F0070016F017F9B4F8F2
:106FF0007A20B4F878301344628D03F23F131344BF
:107000000344814A81480721E3FB0021104678A30D
:10701000D3E90023FFF774F8DDE90A1320F07F427B
:1070200020692261904235BF171A801A002000277C
:107030000A46002BA4D157EA010CA1D1002858D050
:1070400019461F469CE794F89A3003F01803182B52
:107050007FF405AFA18EB4F896218B1D9A42C4BF70
:10706000931F5B1AB4F89211CCBF9BB2134699429E
:1070700000F09C80A4F89231A4F89431A4F89821EF
:10708000EDE63D2684F86061314620460CB0BDE84F
:10709000F0410FF05FBC0023A4F89831A4F89431BC
:1070A000DDE60126334634E7628E052A97BF0132BA
:1070B00040F2E2434FF4FA7392B203FB02F2B4F8E7
:1070C0009C3142F2107101FB0323013BB3FBF2F34D
:1070D0009BB2A4F89E31002B7FF4E1AE19E794F83F
:1070E0008300012100F0070016F09AF87FE735468B
:1070F00036E7002D43D00027114638463B463FE790
:107100000023A4F89431204611F0D4FA21E7384640
:1071100036E70CF0F7FA0146A0B30023A4F8983143
:10712000238EC3801B23037100680CF0BDFA07E7B0
:1071300094F885316BB3013B84F8853104F1E008A4
:10714000404610F0F3FFB8B3404610F0EFFFB8B37D
:107150000023638792E6082120460FF0FBFBB6E68A
:10716000A7B9D4F888315A0813F0010336D1C4F80E
:107170008821A5E63E2120460FF0ECFBA7E6002E75
:10718000B9D1A4E60123A4F89831D9E61346012623
:10719000BFE60AAA0BA92846FFF72AFBDDE90A2366
:1071A0001343CBD0237884F88531C7E7B4F898111E
:1071B00000297FF454AE5FE7FF200FF08DFBC3E79B
:1071C0000246D4E9210109F029FF0028C0D194F832
:1071D00048301B0744BFA38E63874FE642F000424E
:1071E0001E46C4F888213B4693E600BFAFF30080FB
:1071F0008D49FD1A07000000616103008C12050033
:10720000CC1305006C0D05008C49FD1A00CA9A3B91
:107210002DE9F04F87B0CDE90423BDF84420037871
:107220000292BDF84820BDF840A0BDF84C90878F71
:10723000019104460392002B00F0D480013FBFB2BD
:10724000A368D4F81CB1A7EB090292B2002B0092FC
:107250000ADAE168626823F0004391422CBF8B4454
:107260009344A360ABEB030B94F88200C0F3C0011E
:1072700000F0070015F0D2FF658E052D40F2AA80C0
:10728000009B15FB03F5ADB240F2E248BAF1050FE1
:1072900040F29480B4F87A20B4F87830134403F2C2
:1072A000D51303447A4A7B480721E3FB00214FF0C2
:1072B0009613A36296231046A38573A3D3E90023F4
:1072C000FEF71EFF564620F07F4040F2E24308FBE7
:1072D00005F103FB06F6B1FBF6F81FFA88F520610D
:1072E00006FB05F08142A8465AD2401A694966A3B6
:1072F000D3E90023A0FB0101FEF702FF20F07F404D
:107300008344E38EB4F824211344994494F8433021
:10731000A9EB0709C844DB09A4F8368069D15E4AA5
:107320005E495F4840F6671321F00AFB002585F3AC
:107330001188BFF36F8F0323184602DF3746029B85
:10734000A386039BA4F89C3131462046A4F832A0C2
:1073500011F04AF9534BA18E3344881DB3FBF6F369
:107360009AB29042A4F8962104D2C1F57F41FA3135
:107370000A4492B2019BA4F8922113B10023A4F80D
:107380009E315B463A4629462046FFF7B5FC94F805
:10739000903143F0010384F8903107B0BDE8F08FDD
:1073A000091A3C4838A3D3E90023A1FB0001FEF7EA
:1073B000A7FE20F07F40ABEB000BA2E74FF0961347
:1073C0000AF10106A3629623A385B6B20A204FF400
:1073D000FA737CE7009B013515FB03F5ADB24FF462
:1073E000FA7853E7C38E1F44B0F824311F44BFB26C
:1073F00026E7E26C0099636D02FB1133636516F0BA
:1074000045F9074694F88401C0F3420016F040F9AC
:10741000074406FB07F7244B07F5742707F23F27BD
:10742000A3FB0737BF0C636DE76405FB07F0720829
:107430000344963A934228BF1346C4E91423049B9D
:10744000144D40F2E24808FB03F3E3650023A0FB80
:107450000501C4F88C310CA3D3E90023FEF750FEDC
:10746000124B059AABEB000BA3FB0230800A08FB22
:1074700000F0A0FB050104A3D3E90023FEF740FEC2
:10748000F71B20F07F455AE78D49FD1A07000000E1
:107490008C49FD1A00CA9A3B8C120500440E050067
:1074A0006C0D05007FC3C90183DE1B435917B7D19B
:1074B0002DE9F04F0B6891F81180D3F80090037F0D
:1074C000176895B00446C3F38013D0F81E008DF8FA
:1074D0003F30B8F1FF0F638C12900E461546ADF8A1
:1074E0004C300DF1480A4DD19AE803001090ADF8E8
:1074F00044102346E28D53F82EBB9B78AB722A8151
:10750000D4F82A306B60D4F83A30C5F8223005F14F
:10751000220094F83E300371052109F005FF95F82B
:10752000273000F03F0060F3050385F8273094F81A
:107530003F30C3F3040285F82820A28EEA82012896
:1075400003F01F0392B205D91B3303F01F030B2B6B
:1075500000D81ABB0022C9F8142095F82C3062F329
:10756000000385F82C30E56801265846214626712F
:107570000CF08EF828682E7129460CF095F815B09D
:10758000BDE8F08F10AA0DF13F01404614F05CFBFE
:107590009DF83F3002338DF83F30AAE73368002171
:1075A0005960E38EEA8A2B8340F2E24303FB02F246
:1075B0000B92628E0D92384611F02AF894F83F2013
:1075C00097F88411520962F3430187F8841116F089
:1075D0005DF80C9097F88401C0F3420016F058F85B
:1075E0000C9A0B99104401FB00F0BF4A00F574207F
:1075F00000F23F20A2FB00204A08800C963A286344
:107600006A6394F8312040F2E24302FB03F36B64B7
:10761000238FA7F89C31384610F0E6FF0B99B34B47
:10762000B34AC7F8A0210B44B3FBF1F39AB2A7F811
:107630009621298B881D824204DDC1F57F41FA31F4
:107640000A4492B2A7F892216B68C7F888312346A2
:1076500013F81C2FC2F340120C92DA0700F10181DB
:107660004FF48073A38399F8260014F0F1FF04F11E
:107670002B03002800F0F180626AC4F82B20228DD1
:107680009A80B8F1FF0F00F00F81BAF80430129819
:10769000A4F82930C4F825009DF83F30A37710984E
:1076A000BDF84430C4F81F00A4F82330EB8A638689
:1076B0002B8BA386B7F89C31E38697F88431C3F30C
:1076C000420384F8383038460EF0D8FDA882E080B6
:1076D0002146584674680BF0DBFFAB8AE3801C231D
:1076E00023710C9BD4F80080002B40F0D1800C9BC0
:1076F0002377214640460BF0D7FF95F86700B5F891
:107700005C80B5F85E40012100F0070015F088FDAF
:10771000444404F2D514DFF8E481044482467548F9
:107720004FF096130721C5E90333E4FB0801312329
:107730000024BB607C606AA3D3E90023FC60FEF7F1
:10774000DFFC20F07F4038610B9B2D6B0D995D1B9A
:10775000F36840F2E24202FB013303F2B341A1EBD2
:107760000A0A22460221012009F090FC48460EF048
:1077700035FA0246AAFB0801924659A3D3E9002331
:10778000FEF7BEFCCDF80490B3685B49009120F091
:107790007F480AF102023A3BD2B24344012120461B
:1077A0000BF03EF8012800F0858099F82430DB07C3
:1077B00066D438460EF062FD504BA5FB03A9044683
:1077C00047A3D3E9002350464946FEF799FC4C4BAA
:1077D000B6684C4A079220F07F45A5FB0331BAEB0F
:1077E0000300494B05934FF4F573069708933B69E3
:1077F0004FF0000BCDE903B34FF0070303FB051176
:1078000069EB01014FF47A720023FEF779FC03342F
:107810003A3EE4B2CDE90150CDF80080334622462D
:10782000012158460AF026FF10F0FD0F0DD0374A0F
:107830003749384840F2EB1321F082F88BF3118876
:10784000BFF36F8F0323184602DF01220221104687
:1078500009F01CFC15B0BDE8F08FC4F82B0098802F
:107860000FE72A4A2C492B48FD2321F069F8002311
:1078700083F31188BFF36F8F0323184602DFEFE60F
:10788000002301220093184611460AF087FF90E773
:1078900095F8273043F0400385F82730281D13F072
:1078A000DDFF0123288523E70022C4F82520A4F862
:1078B0002920F1E60BF0BAFF81453FF476AF134A79
:1078C0001649144840F2922321F03AF884F31188C3
:1078D000BFF36F8F0323184602DF66E7AFF3008024
:1078E0008D49FD1A0700000083DE1B437FC3C901D9
:1078F000404B4C008C49FD1AEDB5030000CA9A3B81
:107900008D49FD1AB9B503002DB60300AC1805006A
:10791000501305006C0D05006010050008190500E6
:1079200010B5334C3349002304F1FF3C14F83320E5
:10793000072A02EB820E05D811F83E206FF345129C
:1079400001F83E201CF833206FF300020CF83320BE
:107950000133082BEAD1284A284C002313700A78F7
:1079600063F300020A7091F8282063F3000281F8A3
:10797000282091F8502063F3000281F8502091F8FC
:10798000782063F3000281F8782091F8A02063F357
:10799000000281F8A02091F8C82063F3000281F86A
:1079A000C82091F8F02063F3000281F8F02091F8EC
:1079B000182163F3000281F81821114A9FED0A7B18
:1079C0001370104B83ED007B0F4B236028B1BDE893
:1079D00010400E490E4827F035BBBDE810400C485A
:1079E00027F03CBBAFF30080FFFFFFFFFFFFFFFF6F
:1079F000C13E0020803D00207A580020903C0020AD
:107A00007958002050160020A0BB0D0061C3030070
:107A100020160020000000002DE9F04F8FB00DF17E
:107A200037010446DFF8E0A0DFF8E0800DF1360012
:107A30000BF0AAFE9DF836309DF837B00B930AF094
:107A400033FFDAF80060A6FB085629A3D3E9002328
:107A50000027814631462846FEF752FBCDE90777DD
:107A6000069420F07F44DAF80400234B0593A0FB32
:107A700008011FA3D3E90023FEF742FB1F4B20F0B0
:107A80007F40A4FB0331072202FB0411CDE9037000
:107A9000E81A66EB01014FF47A720023FEF730FB1F
:107AA0000097CDE901404B460B985A4603210AF056
:107AB000E1FD10F0FD0404D06FF08B000FB0BDE8C5
:107AC000F08F0F480F4A00231EF080F820B9DAF833
:107AD0000C000FB0BDE8F08F9DF837209DF8360000
:107AE0000094234603210AF059FE6FF07300E5E786
:107AF0008D49FD1A070000000DC903008D49FD1ACC
:107B0000343F0020447B0B004C3F002000CA9A3BCE
:107B100038B50F4D04460AF0C7FEA9680AF0C6FE44
:107B2000696803460B48B3FBF4F4A1FB00011C4455
:107B300005A3D3E90023FEF7E3FA20F07F40844257
:107B400094BF0020012038BD8D49FD1A07000000B8
:107B50004C3F002000CA9A3BF0B5C468636883B00C
:107B60000546002B64D117F05FF8082017F082F863
:107B70000021084617F070F800222521082017F090
:107B8000ADF8474B019301A817F094F8454940F22E
:107B90005B6017F045F9237AC3F3420262F30613E0
:107BA0002046237215F090FF14F02EFE58BB637A26
:107BB0009B071FD127682E68384615F0CBFA06447C
:107BC0006A6806F10901012017F072FA17F030FB1C
:107BD00020460EF00FF8811C3246C9B2384615F027
:107BE000C7FA054678BB204615F05CFA88B9002034
:107BF00003B0F0BD012014F075FA4178821C0078C2
:107C000017F0F6F9D6E7607A10F0030018BF0120EC
:107C1000F1E7254A2549264840F2294320F090FE05
:107C200085F31188BFF36F8F0323184602DFDEE769
:107C300093F82C309A0796D01E48214616F0B2FFD2
:107C400017F098F8D3E7184A1B49194840F2114336
:107C500020F076FE194B0721A5FB030301FB05313C
:107C60000DA3D3E90023FEF74BFA15490246154848
:107C700020F066FE002585F31188BFF36F8F032384
:107C8000184602DF1048214616F08CFF17F072F8F4
:107C90006FF08B00ACE700BF00CA9A3B0000000009
:107CA000D6BE898E55555500041D0500400F0500B0
:107CB0006C0D050001D30300440E05008D49FD1A2B
:107CC000B41D0500881D05009DD6030000000000BE
:107CD0002DE9F041C468A28A4FF6FF739A4282B040
:107CE00000F0DF80054616F033FA2B89628B208C7A
:107CF000A3831A4492B2104494F82730E28380B2EE
:107D0000411C21845E064FF00001618304F12201D1
:107D100000F1A18003F03F000B4694F8281000907A
:107D200004F1290013F052FD0646D4E90C31A28B70
:107D300002FB0333A26B1344E26B8B4294BFD21855
:107D400052188A4228BF0A46E263616C226C94F89A
:107D500067301144616494F87E2094F82C10C3F3CA
:107D6000020363F3061112F004024FF0000384F8DB
:107D70002C10A363236478D016F056FF082016F069
:107D800079FF201D16F096FF2389A17A40F25B60EF
:107D900043EA014117F044F8304615F0FBF921465B
:107DA000594816F0FFFEA08917F076F994F866207E
:107DB00094F86700C2F3C003002102F0070200F04C
:107DC000070017F093F8204616F06CFA27682E6823
:107DD000384615F0BFF906446A6806F1090100202B
:107DE00017F066F9804617F0F7F9002017F00EFA41
:107DF000E36B94F8670003F12F02636C00F0070057
:107E0000012103EB420516F0A7FF4544054494F811
:107E1000670000F00700022825D004280CBF4FF4AB
:107E2000BC73282301211D4416F098FF284417F045
:107E3000C5F9A18A03313246C9B2384615F098F91E
:107E40000546002834D1204615F02CF9D0B9002081
:107E500002B0BDE8F0810A4603F03F03218D13F024
:107E600001FD064661E71823DCE7D4E91A0109F0B1
:107E7000D5F8002880D194F87E3043F0040384F8CC
:107E80007E3079E7214A224922484FF4B07320F02E
:107E900057FD85F31188BFF36F8F0323184602DF68
:107EA000D5E71D48214616F07DFE16F063FFCEE7AC
:107EB000164A1A4917484FF4AB7320F041FD184B8E
:107EC0000721A5FB030301FB05310DA3D3E9002323
:107ED000FEF716F913490246134820F031FD00253C
:107EE00085F31188BFF36F8F0323184602DF0F4815
:107EF000214616F057FE16F03DFF6FF08B00A7E706
:107F000000CA9A3B000000001DE50300401E05006A
:107F1000400F05006C0D050001D30300440E050061
:107F20008D49FD1A941E0500881D0500DDD2030051
:107F3000014824F04DBF00BF04FF0400012B07B52A
:107F40000FD112780848012A14BF002257228DF859
:107F5000072000210DF1070224F0ADFE03B05DF80B
:107F600004FB6FF08500F9E704FF0400012B13B553
:107F7000144611D10A480DF10702002124F0C0FE79
:107F8000002807DB9DF80730A3F157025342534105
:107F90002370002002B010BD6FF08500FAE700BF2B
:107FA00004FF040001481DF0EBBF00BFB002002039
:107FB00001481DF0E5BF00BFA002002007B527F073
:107FC000CCF94FF47A72A0FB020302FB0131C00B23
:107FD000074A40EA4140106000234FF40042054840
:107FE000CDE900231EF086FE002003B05DF804FBFF
:107FF000881B002018080020014B187800F042BAB6
:108000008A570020044B1A78824202D01870FFF77A
:10801000F3BF0020704700BF8A57002008B527F043
:108020009CF94FF47A72A0FB020302FB0131084A6B
:10803000C30B126843EA41439B1A47F23052934202
:1080400004DDBDE808400120FFF7DCBF08BD00BF2C
:10805000881B002008B527F080F94FF47A72A0FB46
:10806000020302FB0131C00B044A40EA41401060A8
:10807000BDE808400020FFF7C5BF00BF881B0020F7
:10808000014B1878704700BF8A570020F8B50446A6
:1080900010B900252846F8BD0378002BF9D00F4E03
:1080A0000F4FBE420FD30D4EBE42F2D2306826F0C3
:1080B00006FD30B1356821462868FEF73BF80028F8
:1080C000E8D00436F0E7306826F0F9FC18B13568DE
:1080D0002B68A342DED00436E3E700BF7C410500F5
:1080E0008841050070B5194C194D8CB00022002351
:1080F00003A920461DF0D4FB08B10CB070BD2B685D
:10810000059E5868DDE9031220F049F80028EDDBF0
:10811000FF238DF81830B6FA86F35B0907908DF8C7
:10812000203027F01AF94FF47A72A0FB020302FB09
:108130000131C00B40EA4140C90B8DE8030006AB9A
:10814000CDE90A010FCB00F0B7F9CFE750090020C5
:10815000401C00201FB50A4C2468A46884420DD13D
:1081600083F00103CDE901120393064800220023A6
:1081700001A91DF037FB04481DF002FF04B010BD3B
:10818000401C002050090020301C00201FB5002397
:10819000CDE90233044B8DF80C0001A8019320F0C7
:1081A00025F805B05DF804FBC8060500044B1A6805
:1081B000044B9A4214BF6FF012000020704700BFBA
:1081C000401C0020B006050038B5044628B3144D05
:1081D0002B6883421FD02BB1986818B183685B6805
:1081E00003B198470F49104B8C4214BFED21002179
:1081F000292200201FF0EDFF00280DDBA0682C6075
:1082000048B1836809491B6898472B689868836858
:108210009B6803B19847002038BD6FF01200FBE760
:10822000401C0020B00605008C1B00205581020078
:1082300038B5054648B90648FFF7C6FF041E02DBFD
:108240002846FFF7A3FF204638BD6FF01504FAE774
:10825000B0060500F7B50C4615460D4901AA1E46A5
:1082600021F01FF968B1019B6BB9012C0DD1094FA9
:10827000224639463046A847002802DD3878FFF705
:10828000D7FF03B0F0BD0020FBE76FF01500F8E763
:10829000432C0500CC0700200148FFF795BF00BF25
:1082A000B006050008B50749074826F07EFE074AD4
:1082B000002342F8043B0133292BFAD1BDE80840E2
:1082C000FFF7EABFE5800200301C00208C1B002075
:1082D000F8B50F4D0F4E761B07460C4605EBC10552
:1082E000C6F3C706A64201DC00200CE02A683B6802
:1082F0009A4209D13C716B6838461B68984718B19F
:10830000431E012BF0D9F8BD01340835EAE700BF60
:10831000B0350500D835050000B58BB0064B074ACF
:10832000282168461EF06EFD05490122684601F0CD
:10833000F1FE0BB05DF804FB8B2C0500952C0500BD
:108340008B5700202DE9F8434768044600254FF07D
:1083500001087B68AB420DD82149224826F072FE05
:10836000A3681B680BB120469847398939BB0020A8
:10837000BDE8F8833A6802EBC50352F83500197975
:10838000DB88D0F810C0D0F80890DCF80060DA077D
:1083900054BF43F4B01383F4D01323F4801208FACB
:1083A00001FEDB074CBF46EA0E0626EA0E06CCF8B5
:1083B0000060D9F80030984770B90135C9E740F23C
:1083C000E7304FF47A72002300EBC1300021FDF753
:1083D00097FE26F049FFCAE76FF00400C8E700BF28
:1083E00019830200A80B002008B5074B5A784AB938
:1083F00001221A700548002200231DF02FFE0448B8
:108400001FF00AFF002008BD8B570020A80B00209A
:10841000DCFE040008B54FF4F012002302481DF002
:1084200051FE00EAE07008BDA80B0020F7B50C462D
:108430001646114901AA1F4621F033F8B0B1019B3D
:10844000A3B9012C15D10D4D224629463846B04717
:10845000002806DB2B780A486C7023B11FF0DCFE85
:10846000002003B0F0BD1FF0F3FEF9E76FF001004C
:10847000F7E76FF01500F4E78B2C05008B57002011
:10848000DCFE04001FB50023CDE90233044B8DF858
:108490000C0001A801931FF0A9FE05B05DF804FBD4
:1084A000EC0605000268034B9A420CBF083000201E
:1084B000704700BFEC06050084B030B589B00CAC45
:1084C00084E80F00002301930CAD084B00930FCDFF
:1084D00002AC0FC495E8030084E8030068461FF06F
:1084E00085FE09B0BDE8304004B07047F0060500D5
:1084F0000268034B9A420CBF08300020704700BF4F
:10850000F00605001FB50023CDE90233044B8DF8BA
:108510000C0001A801931FF069FE05B05DF804FB93
:10852000F806050082B038B504A981E80C000546BC
:1085300011481CF0A9FF0446A0B16B68012B0CD0B8
:10854000022B05D0A3B9BDE8384002B01FF0B9BE78
:108550001FF0BEFE00282046F5DCBDE8384002B022
:108560001FF0A8BE6FF00400BDE8384002B07047AD
:108570006FF08500F8E700BF8B2C050082B010B5C6
:1085800002A981E80C0004460B481CF07DFF78B17D
:108590006368022B04D00020BDE8104002B0704791
:1085A0001FF096FE0028CCBF002001206060F2E79B
:1085B0006FF00400F0E700BF8B2C05001FB500230F
:1085C000CDE90233044B8DF80C0001A801931FF094
:1085D0000DFE05B05DF804FB300705000268034B93
:1085E0009A420CBF08300020704700BF30070500DA
:1085F00008B500F059FBBDE80840014926F0F1BC80
:10860000C002002007B5084826F059FA48B14FF4D7
:10861000F0120023CDE900230448002200231EF0BD
:1086200069FB03B05DF804FB40FF04005008002024
:1086300008B5FFF737FF10B96FF0850008BDFFF7E9
:108640001FFD38B10138C0B20128F5D8034826F023
:10865000CBFE01E0FFF7D6FF0020EFE75008002037
:1086600037B5104CA5683021EB6820469847B8B95B
:1086700030212B696A462046984788B90A4C0098F1
:108680002378834204D0C0B22070FFF797FF38B937
:1086900001F012FD2378984202D0184601F012FD35
:1086A00003B030BD40FF04008D57002008B50548D9
:1086B00026F005FA18B1FFF7A5FF002008BD6FF0FE
:1086C0001200FBE740FF04001FB50023CDE9023391
:1086D000044B8DF80C0001A801931FF087FD05B035
:1086E0005DF804FB3807050008B5BDF8081019440B
:1086F000012908DC3BB1054B127805481A701DF0C2
:108700003FFC012008BD6FF00600FBE78E570020FC
:1087100010030020014B1878FFF78ABD8E57002008
:108720001FB510240294044C0194BDF81840009425
:1087300023F055FB04B010BDA357002007B5064B2E
:1087400000930649064805234FF43E721DF01EFCB7
:10875000002003B05DF804FB3C070500985800209A
:10876000D80B002070B50F4D0F4E8AB000220023A9
:10877000694628461DF094F8044608B10AB070BD59
:108780002146182204A826F0DCFE10230DEB03017D
:1087900020460596CDF818D0ADF81C3007F058F9F2
:1087A000E4E700BF80090020580705001FB50E4907
:1087B0000E4840F6CD4200231DF014F8044670B177
:1087C00010F10B0F08D100220023694607481DF065
:1087D00067F8FFF7EBFF0446204604B010BD0449DC
:1087E000044826F0FEFBF7E7A3570020800900208D
:1087F000D0020020D80B002038B5037823B1032B1A
:1088000011D06FF0850038BD4278094D02F00701A4
:10881000D40801228A4081782B5DD2B229B113435A
:108820002B55FFF7C3FF0020EDE723EA0203F7E72C
:10883000A3570020014B1970704700BFB6570020A6
:10884000014B186000207047441C0020084A094B67
:1088500012781B78002062F30700074A12785B0049
:1088600062F30F20DBB282B063F3174002B07047AF
:10887000B3570020B7570020B457002013B50C4B56
:108880001C6894B1FFF7E2FF8DF80400C0F30723E2
:10889000C0F307408DF805308DF8060001990548B2
:1088A000234602B0BDE81040184702B010BD00BF1B
:1088B000441C00208841050010B5002003F038FA60
:1088C000044610B9024820F0E9FD204610BD00BF63
:1088D0002003002010B5084805F078F8074805F097
:1088E0008BF9074B074800241C70074B01221A70B4
:1088F0001DF046FB204610BD5C0300204C03002009
:10890000B55700203C030020B3570020044B1B78D0
:108910002BB1044B044800221A701DF031BB704784
:10892000B4570020B5570020800300200C4B07B53A
:10893000187030B10B481DF023FB002003B05DF828
:1089400004FB01900849012001AA04F0FDFD0198F3
:1089500010B1132122F00CF804F09EF8EDE700BFEF
:10896000B457002080030020E18304000B4BB1FAD0
:1089700081F010B540090C461870FFF7A5FE3C2C9D
:108980000AD1074B1B783BB1064B074801221A70EE
:10899000BDE810401DF0F4BA10BD00BFB75700206D
:1089A000B4570020B55700208003002070B503782D
:1089B0008AB004460E4607AD032B20D8DFE803F04B
:1089C00002191B1D11492846FDF7BEFB059563786A
:1089D0000493A3780393E378029323790193637953
:1089E0000093A3790A4A1E2130461EF00BFA0AB002
:1089F00070BD0849E7E70849E5E70849E3E7084AA1
:108A00000A2128461EF0FEF9E0E700BF352E0500DA
:108A10005E2E05003C2E0500432E05004D2E050060
:108A2000572E050000B589B022F04DF86946FFF7D2
:108A3000BDFF044B00201870FFF746FE09B05DF83B
:108A400004FB00BFB757002070B5204E204B3068A4
:108A5000B2881C781F49B3798AB003AD0390ADF892
:108A6000102000202A46AB7108F0D0F831460722CA
:108A7000284626F0ECFE184B0646D0B1ACB90320D0
:108A80002246214601241C700023CDE90602CDE9CF
:108A90000815ADF814308DF8163000931A461946B3
:108AA00005A803F0C7FF0AB070BD1320A022F02173
:108AB000E8E70A4D18700FCD05AC0FC42B68236092
:108AC0000749009633460322EAE700BF132F05004B
:108AD000B5570020E58A0200B6570020D0020500F5
:108AE0000808050038B507220C460649054626F059
:108AF000AEFE28B12B682360AB88A380AB79A3714D
:108B000038BD00BF132F050000487047884105009D
:108B100073B5194C194EB442254602D36FF01200BA
:108B200008E02B689B68043433B9154C2368AB42CA
:108B300011D1002002B070BD9847C0F307238DF813
:108B400004008DF80530C0F30743C0B28DF806303D
:108B50000028E0D0E9E723B11B685B680BB1002077
:108B600098472B6825605B68002BE2D0012002B09B
:108B7000BDE87040184700BF884105008C410500E2
:108B8000481C002007B5094B01911B68834207D19F
:108B90009DF8063033B903B05DF804EBFFF7B8BFBA
:108BA000FFF7B6FF002003B05DF804FB481C00206F
:108BB00070B5094C094D0A4EAC42234603D3BDE8BB
:108BC0007040FFF7A5BF1B68DB680434002BF3D0AF
:108BD00030469847F0E700BF884105008C4105000A
:108BE000858B0200054B1B6823B11B6813B11B6802
:108BF00003B118476FF01200704700BF481C0020F7
:108C000008B5044800F072FF002818BF6FF0150087
:108C100008BD00BF418C0200084B1B780B2B4FF0A6
:108C200001000AD8984010F4CD6F05D110F4016FFF
:108C30000CBF01200020704702207047E107002090
:108C40000A2808B5024613D00A4B0B491870FFF7E3
:108C5000E3FF02280AD10B78032A08BF43F001037F
:108C60000B70BDE8084005481DF08AB90023F7E7FE
:108C700008BD00BFE1070020B85700209003002086
:108C800007B5064B0093064906480A234FF4407285
:108C90001DF07CF9002003B05DF804FB24080500FA
:108CA000905B0020C00C002000487047C00C0020E2
:108CB00010B5094C0A44914200D110BD11F8013B96
:108CC000584003090001E35CC0B2434018091B018E
:108CD000205CDBB25840EEE7A82E0500014B1B6874
:108CE000184700BFA003002030B585B004460D46EC
:108CF00010220021684626F024FC02238DF8023061
:108D00002A46044B0193214668461EF0A9F905B096
:108D100030BD00BFDD8C020080B505460E4617460B
:108D200098461DF009FD034626F0A6FFDFF81890CF
:108D3000044649F80030424630463946A84754F8C0
:108D4000090001F0BFFD00BF0800000008B504469F
:108D5000EFF31183202383F31288BFF36F8F19F091
:108D600069FD204601F09CFD02481FF0DCFD20F06B
:108D7000EEFCFCE7B82E05002DE9F047058B044614
:108D80002807904611D4022905F0070540F0CC8051
:108D900020461FF076FE78B10138218B042811D8C7
:108DA000DFE800F0C2106D85950001290CBF45F089
:108DB000100545F02005258388F31188BFF36F8FD8
:108DC000BDE8F08701F0070AAA4500F0A58000275A
:108DD000B9463E46A368002B00F0BC8041F0080174
:108DE000218388F31188BFF36F8FA168002900F0F9
:108DF000BA800D68002900F0B680D1F804803346AF
:108E000052462046C047002D76D02B6829461D4685
:108E1000F0E701F007035A1F012A1BD8002221F0B6
:108E20000701062B276889B2C4E9002209D13B4615
:108E300003E0628B013262831B68002BF9D141F0A1
:108E40000201218320461FF01CFE00287AD041F049
:108E5000200176E0042B0AD121F0070189B2218399
:108E600020461FF00EFE10B141F020012183218B1E
:108E700001F0070AAA454FD00027B946AAE723699F
:108E800021F0070141F00601062DD3F8009021835F
:108E90002DD1B9F1000F3FD041F00801218388F3B3
:108EA0001188BFF36F8F3A492046C84729E021F067
:108EB0000701236941F0040189B2042DD3F804901D
:108EC0002183E6D000273E464FF0040A82E721F0D6
:108ED0000701236941F0050189B2052DD3F80890F7
:108EE0002183D6D000273E464FF0050A72E70027BF
:108EF0003E464FF0060A6DE72B4687E7B9F1000FB3
:108F0000D1D1EFF31188202383F31288BFF36F8F41
:108F1000238B23F008032383258BEA062ED525F027
:108F20001003238305F007056669218B002EBFF629
:108F300070AF00232768C4E9003321F0070141F036
:108F400001012183218B01F0070AAA454FF0000996
:108F50007FF440AF002F9CD041F00801218388F3BB
:108F60001188BFF36F8F002FC8D03D683946334654
:108F7000524620461FF0B1FD2F46F4E7AB067FF5C1
:108F80001BAF25F02003238305F0070500E700BF92
:108F9000078B04002DE9F7430F4606460821C06AF7
:108FA000DFF850901FF0FCFE3C68241A80463C60BD
:108FB00004EA0905AC4203D8002003B0BDE8F08301
:108FC00008236A46214630461FF082FE0028F4D16D
:108FD000694630461FF0EEFE40B1BDF80230BDF8E4
:108FE00004203C6005EA090513441D44A4EB080471
:108FF000E0E700BF0000FFFF73B504460821C06A28
:10900000124E1FF0CDFE4FF6FF726368ADF80020E0
:109010008DF80620A289191833401344181A002528
:1090200060606846ADF80210ADF804501FF0AFFE66
:10903000694620461FF07EFF2046211D1FF081FE5D
:10904000636828463340A36002B070BD0000FFFF94
:109050002DE9F047044688B000F11407384625F0A2
:1090600038FEA06A8368DB689847E06228B96FF031
:109070001505284608B0BDE8F087A06A8368DB685C
:1090800098470368013B1F2BF1D8A06A216805AA05
:1090900024F010F80028EAD1A589002DE7D0069B1E
:1090A000B5FBF3F203FB1255002DE0D1E389012B50
:1090B000DDD9E36A009593F805904FF0FF334FF048
:1090C000FF3238461CF04EFCE06A08211FF068FEB3
:1090D000A8460646E3891FFA85FA534508D8E3896E
:1090E000434523D138461CF0B5FC6FF02C05C0E792
:1090F000A1892B04891B13FA81F14A4608232046D3
:1091000000911FF0F3FD78B1694620461FF019FE6B
:1091100008F10108009908234A4620461FFA88F8FA
:109120001FF0E4FD0028DAD00135D3E753450BD119
:10913000009908234A46891B20461FF0D7FD18B91D
:10914000694620461FF0FDFD69462046FFF722FFD5
:10915000054618B138461CF07DFC8AE7009B636029
:109160004FEA13484FEA0848C4F80880D4E90113CD
:1091700099420FD3082301AA20461FF0A9FD0546F6
:109180000028E7D101AB13F8012B914533D101350C
:10919000082DF8D163681B0C1B0469462046009318
:1091A0001FF0CFFDA38900994A4620461FF09EFD7F
:1091B000051ECFDB636876D006EB03084FF6FF7918
:1091C000A389CDF800801FFA88F29B1B9A422ED308
:1091D00000236168002B43D0090C0904009120464C
:1091E00069461FF0AEFD009920461FF0B7FD054609
:1091F000002D74D0AEE701A920461FF0DBFD6268A8
:1092000010B9921B6260B1E7BDF80850BDF80610B6
:10921000E06AC4F8088029441FF0C2FD404490422F
:10922000A060EED1002DECD06FF01C0568E00823A3
:1092300003AA414620461FF04BFD0546002889D170
:1092400003A920461FF0B6FD30B1BDF80C304B45E8
:1092500002D1BDF810300BB1B044B1E70123B8E73B
:1092600020461FF07BFD054600287FF473AF63683E
:10927000264AA18913400B44A3EB460363601340C5
:10928000A36020461FF07EFEB1E75B1A4A462046E7
:109290001FF02CFD051EFFF65DAF08D0E26AA36843
:1092A00012681344A360D4E901318B42EDD86168A0
:1092B000A38901EB46029A429AD1DFF85080A26856
:1092C00001EA08039A4293D020461FF047FD054665
:1092D00000287FF43FAF636803EA0803A360A38913
:1092E000A288A3EB46039A4206D038461CF0B2FB94
:1092F000012323740025BCE620461FF02CFE054602
:1093000038461CF0A7FB002DF2D0B2E60000FFFFAC
:10931000014B0360002070472C08050070B5104B0E
:109320001C680D46B4B10F4B196800238B4202DB59
:109330006FF0010070BD224612F8106B864202D019
:1093400001331446F2E7E06825F0B9FB28B12C6040
:109350000020EFE76FF00C00ECE76FF01200E9E798
:10936000A40300202C08050010B588B043680293C0
:109370008368C068CDE903320A680023CDE906237B
:109380000C4601AA0449059323F098FE079808B9F2
:10939000059B236008B010BD93930400F0B40C4B00
:1093A0000C4E5F6A0C4BB34203D36FF08500F0BCE8
:1093B00070475D68BD4209D31C693CB195F802C095
:1093C0000579AC4502D12346F0BC18472433EAE7BF
:1093D0004C1C0020A10B0020A10B00202DE9F04720
:1093E000134CDFF85080DFF8509005460E461746C4
:1093F000444503D36FF08500BDE8F0876268D9F873
:1094000024309A4212D3A36983B190782979884293
:1094100005D13A4631462846BDE8F047184752790B
:10942000012A03D13A463146284698472434DFE7DB
:10943000A10B0020A10B00204C1C00202DE9F041C5
:109440000B4CDFF8308005460E461746444502D3E4
:109450006FF0850009E063690BB92434F6E73A46FA
:109460003146284698470028F7D1BDE8F08100BF73
:10947000A10B0020A10B002010B5044623F000FD35
:1094800010F1780F00D050B9054A20461FF0BCFFFC
:10949000D2F8C43023EA0003C2F8C430002010BD63
:1094A0004C1C0020024B00221A605A60704700BF1B
:1094B000071D002070B50B4B0B4CA34201D30020BD
:1094C00070BD196A1E7F00220439D5B2AE4201D8A0
:1094D0002433F2E7013211F832508542F5D10120F0
:1094E000EEE700BFA10B0020A10B002008B5094842
:1094F0000378C3F341130A3350F823303BB100F132
:10950000080200F110019847C043C00F08BD18467B
:10951000FCE700BF4C1C002004282DE9F14FDFF8C8
:10952000A09004460F4616D001282DD1DFF88C807C
:1095300098F8B93043B300F061FD1F4D4D4520D27E
:10954000D5F820B04FF0000A2B7F5FFA8AF6B342BD
:1095500004D82435F2E7FFF7A5FFE7E70BEBC606D3
:109560000AF1010A307923F08BFC024630791FF0B2
:109570004BFFD8F8C430002A23EA0003C8F8C430EF
:10958000E2DA002388F8B9300B4D4D4508D30B4B78
:109590001B6A6BB13946204601B0BDE8F04F184751
:1095A000EB681BB13A462146284698472435ECE73C
:1095B00001B0BDE8F08F00BFA10B00204C1C0020C3
:1095C000A10B002073B5C4B263060D468DF80740A9
:1095D00007D02046FFF76EFF78B10D4B93F8BA0025
:1095E00058B10B4E204655B116F05EFDF3691BB124
:1095F0000DF1070108209847012002B070BD16F058
:109600007BFDF369002BF7D00DF107010920F2E78C
:109610004C1C002073B586788DF800600379427980
:109620001C4C43EA0223ADF80230C378304603F005
:1096300003038DF804301FF0E7FED4F8C43018425D
:1096400005460BD0304600F0BBFC3046FFF714FF58
:1096500025F054FD10B996201DF02CF8684616F040
:10966000FFFC10F1780F03D010B1002002B070BDE4
:109670009DF8000016F07CFD10F1780F01D0002855
:10968000F3D1D4F8C43001202B4384F8B900C4F8D6
:10969000C430EBE74C1C00202DE9F047A34EB36922
:1096A00004460F461546FBB9237803F01F03012B30
:1096B00000F09D80022B00F0048133BB94F9000080
:1096C0002A686178002834DA062912D008292BD0BC
:1096D000D9B901231370517096F8C3305B0043F081
:1096E0000103137002232AE198470028DCD10020EF
:1096F0000DE06288100A011F0129844605D9072858
:1097000003D8716AD2B20C781CB96FF01500BDE8AD
:10971000F0874E78664503D19A4200F00B81013301
:109720002144F0E70B780AE196F8BA301370012370
:1097300005E101390829E8D801A353F821F000BF59
:10974000D99702000B970200E79702000B970200DF
:10975000659702000B9702000B9702000B9702001F
:1097600071970200A07816F069FC0028BFD0CCE702
:109770006388756A63BBFFF795FE638886F8BA3025
:10978000F369002BB3D06A4903209847AFE76B78A1
:10979000042B10D0052B11D0022B04D16F796388D4
:1097A000BB4208BF01202B781D442B78002BEED143
:1097B0000028AAD0DFE795F80380F4E76388BB426E
:1097C000F1D1B8F1000FEED12846FFF723FFEAE709
:1097D000FF270020B846E8E76388012B95D10023D6
:1097E00086F8C33083E76388012B8ED1F8E796F8BB
:1097F000BA30D5F800C0002B87D0756AA38894F8DA
:1098000004E02A46107800283FF47FAF51780229FF
:1098100004D192F80480F04500F293800244F1E70D
:109820008CF800208CF80120396060E7154494E042
:109830000B2A7FF46AAF00274FF0FF08C146BA46F3
:1098400006E06B78042B0FD0052B21D02B781D441C
:109850002B78002BF5D1F36913B1514607209847B7
:10986000002F7FF444AF50E795F80280A38895F865
:1098700003909845EAD163889945E7D1B8F1070F7D
:109880001CD806EB0803AA4683F8BB900127DDE746
:10989000A3884345DAD1A3784B450AD0AF78384640
:1098A00000F08EFB3846FFF7E7FDB0FA80F77F093E
:1098B000CCE72846FFF7AEFE0746C7E7AA460027D3
:1098C000C4E794F900206378002A18DA002B7FF4AB
:1098D0001CAF24792D6863060AD02046FFF7EAFD05
:1098E00000283FF412AF96F8BA30002B3FF40DAFCA
:1098F0002946204616F020FC00236B70F2E6012B6F
:1099000008D0032B7FF401AF6388002B7FF4FDAEFA
:10991000012103E0618800297FF4F7AEA088FFF7FA
:1099200051FE00287FF4E3AEEFE600BF4C1C0020A0
:10993000061D0020022829607FF4F4AE4B883B60AE
:10994000D5E694F9000062780028BFF671AF002ACE
:109950003FF466AF0A2A7FF4D8AE2A78002A3FF493
:10996000D4AE697804297FF461AFA9788B427FF483
:109970005DAF072B96BF9B19002393F8BB308CF883
:109980000030D4E613B5164C237DF3B9E268A16824
:10999000019201AB80201FF045FD019AA36813449A
:1099A000A360E3689B1AE3606BB962B12369E28844
:1099B0009A4208DD94F8C82093FBF2F102FB1133C0
:1099C0000BB90123237502B010BD00231A461946B6
:1099D0008020237502B0BDE8104016F0F3BB00BF35
:1099E0004C1C002030B585B0002302460D46019383
:1099F000002858D1002935D108220B460DEB020171
:109A000023F057FA002804DA802016F04DFB05B049
:109A100030BD2A4C029A2260039A626004F1380237
:109A2000A2609DF90820BDF80E302575002AC4E912
:109A300003550ADB802B04D9802016F035FB00206B
:109A4000E3E713B1C4E90333E1E7FFF74FFD002873
:109A5000DAD0E28823699A42D4BFE260E360FFF77C
:109A600091FFD4E7154CD4E90215002D01AB04DCBD
:109A700023F01FFA0028CADAC6E72A4623F019FAAB
:109A80000028D9DB019AA3681344A360E3689B1AFA
:109A9000E360002BBBD104F13803A360FFF726FD80
:109AA0000028DCD1B0E78028B1D1044BDA68002A65
:109AB000D5D11B7D002BD2D1A9E700BF4C1C0020C3
:109AC000054B064A9A62064ADA62064A1A63064A51
:109AD00058629A61002070474C1C00209996020041
:109AE0009D9302003D940200DD9302002DE9F341B5
:109AF0000446474D47484FF0FF334FF0FF321BF00D
:109B000031FF95F8B830002B7BD16B6A83B14248A6
:109B10002C62E8616E6A16F06FFC16F05DFA041EA6
:109B200010DA3C481BF096FF204602B0BDE8F081F9
:109B300000F0BEF8FFF7C4FF6B6A002BE7D14FF0CF
:109B4000FF34EEE700F07CFA041EEADB7378012BA9
:109B50005AD1F379002B57D00026684685F8C830D3
:109B6000ADF802308DF804608DF8006016F078FAD8
:109B7000041ED6DB802768468DF8007016F070FA58
:109B8000041ECEDB2549304616F022FC041EC8DB3D
:109B90002249384616F01CFC041EC2DB204CDFF8BC
:109BA000848044451AD3002016F0E2FA041EB8DB84
:109BB000D5F8C430802043F00103C5F8C43016F056
:109BC000D7FA041EADDBD5F8C43043F48033C5F8B2
:109BD000C430012385F8B8300024A2E7276A0026A4
:109BE000227FF3B29A4201D82434DAE707EBC302AA
:109BF00057F83310107916F0EBFB01360028EFD040
:109C00009DE76FF077048CE76FF0150489E700BFDC
:109C10004C1C00200C09002019950200E599020057
:109C2000A10B0020A10B002030B51F4B8BB005AA63
:109C300003F1100518685968144603C40833AB4291
:109C40002246F7D11B7823701022002101A825F0AD
:109C500078FC12220021154825F073FC102101A880
:109C600023F0DBFA00281BDD0828B8BF08200938DC
:109C700001AB0E491A18002012F8013F0AAC04EBA0
:109C8000131403F00F0328336B44013014F8144C01
:109C900013F8143C0C7008284B7001F10201EBD151
:109CA00002480BB030BD00BFE12E0500BA570020BE
:109CB0002DE9F04F724B93F800B087B0BBF1000F65
:109CC00003D0704807B0BDE8F08F6E4C00264FF00F
:109CD000011AB0463546B14623783BB96A4B023487
:109CE0009C42F3D1664A01231370EAE76378052B9F
:109CF0001BD8DFE803F08E03C38E1D39402304A870
:109D00008DF810B0ADF812308DF814B023F0A3F830
:109D100040B1082304A8ADF8123023F09CF808B134
:109D2000ADF812B0BDF81230E37123781C44D3E7CC
:109D3000E378002BF9D1A3786BB108F101085FFA41
:109D400088F8F2E76B689C4207D024354F4B9D4260
:109D5000F8D30020B6E74E4DF8E7AB68002BECD007
:109D6000414620469847E8E7002DF2D000222B7F9D
:109D70009A42EED2296AA07801EBC2010B7998428F
:109D800001D00132F3E70127E07800F003008DF8FD
:109D90001400207994F805C040EA0C20ADF81200B8
:109DA00094F902000028FBB228DA07F110004FF006
:109DB000010C0CFA00F010EA0A0F26D143F08000E3
:109DC0008DF8100004A8CDE90213019223F043F8A6
:109DD000DDE90121039BC0B99DF81020A27012F0AB
:109DE000800F18BF10330A7118BFDBB24FF00102A9
:109DF00014BF9A40BA404AEA020A96E70120B840E6
:109E000010EA0A0F01D11846DAE70137102FBBD14B
:109E1000B7E7032E1AD1FFF707FF074650B1FCF74B
:109E20009BF9024630B11028A8BF10223946A01C69
:109E300025F05FFB23786FF00201E218091B04EBA9
:109E40005303D14213D50136F6B26EE7002EF1D19D
:109E5000B9F1000F3FF47DAFA4EB090389F802309C
:109E6000C3F3072389F8033089F80480EBE702F88D
:109E700001BC13F8010902F8020DE2E7A14654E71C
:109E8000B9570020440B0020A10B0020A10B00209B
:109E9000A10B002010B5094B00211A461C78844202
:109EA00005D15C681CB1482303FB012010BD0131C2
:109EB000042903F14803F1D10020F7E7181D002021
:109EC0002DE9F34150F8303C10F8346C103304465F
:109ED0000AD1036950F8282C980736D5D2B959070A
:109EE00015D5002344F8303C54F8303C10330BD0E7
:109EF00054E9097554F81C8C25F000F900284FD05E
:109F00002E48214625F06DF802B0BDE8F08143F0FF
:109F10000403236154F82C1C01AB30461FF082FA75
:109F200010B16FF01503DDE7019A54F82C3C13448F
:109F300044F82C3C54F8283C9B1A44F8283C54F82C
:109F4000243C134444F8243CCEE754F82C1C01ABC9
:109F5000304616F0B3F90028E3D1019D54F82C3CAB
:109F60002B4444F82C3C54F8283C5B1B44F8283C18
:109F700054F8243C2B4444F8243C002DB1D0304606
:109F800016F040FAB5FBF0F303FB1055002DA8D1F5
:109F900054F8283C002BA4D0304616F0D7F9A3E79C
:109FA00044F8200CA4F118001BF0D6FD002DABD016
:109FB000424639463046A847A6E700BFB8190020F8
:109FC00010B5EFF31184202383F31288BFF36F8F52
:109FD000FFF760FF50B14368103307D16FF08B0378
:109FE000436000F13401044824F0FBFF84F311883E
:109FF000BFF36F8F10BD00BFB8190020F8B50E4C2D
:10A0000004252027EFF3118687F31288BFF36F8FA3
:10A010006368103307D16FF08B030848636004F165
:10A02000340124F0DEFF86F31188BFF36F8F013D0A
:10A0300004F14804E6D1F8BD181D0020B81900202D
:10A0400070B50A4C0A4E00253146204624F0ADFF7B
:10A050000122A4F118001146013524F023FF042D3C
:10A0600004F14804F0D1002070BD00BF4C1D002059
:10A07000C19E02001FB507240294044C0194BDF850
:10A080001840009421F0ABFE04B010BDE2070020A0
:10A0900010B5084C86B024788DF81740012402943E
:10A0A0000DF117040194BDF82040009421F097FEB3
:10A0B00006B010BDE9070020014B1878704700BFBB
:10A0C000E907002000B589B064288DF8070019D889
:10A0D0000E4B18221870002102A825F032FA0C4B02
:10A0E00003930DF10703049302A901230020ADF8A7
:10A0F000143005F0ADFC10F1800F08BF002009B04E
:10A100005DF804FB6FF01500F9E700BFE9070020D8
:10A11000100905002DE9F0410F4B1C6805460E465D
:10A120001746ACB14FF0FF324FF0FF330B481BF036
:10A1300019FC63683246D3F8088029463B4620461E
:10A14000C047044605481BF085FC2046BDE8F08169
:10A150006FF00104F9E700BF381E0020F808002066
:10A1600000230360044B5A6812B9C3E9000070472A
:10A1700010605860704700BF3C1E0020014B186003
:10A18000704700BF381E002030B585B0002305465B
:10A19000CDE9023301904FF0FF330C484FF0FF320E
:10A1A0001BF0E0FB0A4B1C684CB9284600F0D0F8C5
:10A1B000044606481BF04EFC204605B030BD6368DF
:10A1C00020461B6801A998472468EDE7F80800209D
:10A1D0003C1E00201FB5CDE9010103924FF0FF3373
:10A1E0000A484FF0FF321BF0BDFB094B1C682CB92D
:10A1F00006481BF02FFC204604B010BD63682046C3
:10A200001B6801A998472468F1E700BFF8080020FF
:10A210003C1E0020024B0022C3E90022704700BF11
:10A220003C1E0020024B0022C3E90022FFF7F2BFD0
:10A23000441E0020F8B51C4C1C4E05460F46B44287
:10A2400012D31B4E1B484FF0FF324FF0FF331BF071
:10A2500089FB34687CB1286854F8181C183CFBF75B
:10A2600069FFD0B1A469F5E721682868FBF762FFB0
:10A27000B0B11834E3E700226F60AA61726805F19B
:10A2800018033AB9C6E9003300240A481BF0E2FB80
:10A290002046F8BD13607360F6E76FF01004F4E732
:10A2A0006FF01004F4E700BF00020500C0020500D3
:10A2B000441E0020F80800202DE9F74307460C460D
:10A2C00009B100230B601F4DDFF8809000264D453B
:10A2D0000FD31D4B1D6885B355F8188C01AA414654
:10A2E0003846183D1FF0DDF810B3D6B914BB2E4622
:10A2F0001EE0D5F8008001AA414638461FF0D1F88B
:10A3000050B116B954B92E4606E0316800224046D5
:10A310001FF0C7F80028F5D11835D8E7019B236056
:10A32000F1E73168002240461FF0BBF80028DDD17C
:10A33000AD69D0E7019B2360D9E7304603B0BDE8A3
:10A34000F08300BF00020500441E0020C00205008B
:10A350002DE9F047DFF8B090DFF8B0A080464FF06D
:10A3600000470026274C3D464C450DD3DAF8004007
:10A37000002C42D0183CB8F1000F25D122695ABBFD
:10A38000A469F5E72F46EDE7B8F1000F03D1226984
:10A390004AB91834E8E72068002241461FF081F8E6
:10A3A0000028F4D1F5E76368BB4205DDAF4209D070
:10A3B0009D42A8BF1D46ECE7EBD19047002E08BF99
:10A3C0000646E6E71D46E4E72068002241461FF006
:10A3D00068F80028D2D1D3E76368BB4205DDBD42EF
:10A3E00009D09D42A8BF1D46CAE7C9D19047002E9B
:10A3F00008BF0646C4E71D46C2E7AF42C2D1304699
:10A40000BDE8F08700020500C0020500441E0020E0
:10A4100038B50C4D0C484FF0FF334FF0FF321BF0B6
:10A42000A1FA2B783BB9FFF7FDFE00F06DF804466A
:10A4300010B901232B70002403481BF00BFB2046AE
:10A4400038BD00BFCC570020F80800202DE9F047A8
:10A45000048FDFF8B0A0013498B006468946A4B254
:10A4600000F10807651EADB2B5F5004F47D04A238D
:10A4700005AA294638461EF084FF04F57F543F3470
:10A48000A4B28046214601230DF10B0238461EF08E
:10A4900078FFB8F1000F014610DC002810DC338F84
:10A4A000AB4209D132466B1E22F8383F4FF40041CF
:10A4B000022338461EF033FE2C46D3E7002808DC82
:10A4C000294638461EF0F9FE214638461EF0F5FEB4
:10A4D000E5E708F160030DEB0308002308F84C3CA6
:10A4E0005246CDF8009003AB05A80397ADF8104095
:10A4F0001FF00DF80028DFD018B0BDE8F08700206D
:10A50000FAE700BF7D9504007FB50123694602206C
:10A510000193FEF703FF044660BB02AA01A90220D3
:10A520001EF059FF044610B110F10C0F22D103990F
:10A53000B1F5803F23D2009A00239468184608445E
:10A5400084421AD30133082BF9D10E4DA982EB8234
:10A550005368AB602846D368EB631FF0A7F8044646
:10A5600040B9094E6E602846FFF7FAFD28466E6036
:10A57000FFF704FE204604B070BD9BB2E5E76FF024
:10A580002004F7E74C1E0020E003002030BFFFF757
:10A59000FDBF00BF2DE9F0410B4EDFF8348006EB24
:10A5A0000807CC1B054632460849204624F0A1FF87
:10A5B000A01942460021083C24F0C3FF6C6707F154
:10A5C0000800BDE8F08100BF00000000CC020500DB
:10A5D00008000000054B9A699B689A421FBF044A15
:10A5E000536843F080535360704700BFF05600201B
:10A5F00000ED00E0134B9A6A12F0007F9A6A14BFD4
:10A600001E201D2012F0807F9A6A18BF1F2012F4AE
:10A61000002F9A6A18BF212012F4802F9A6A18BF5F
:10A62000222012F4003F9A6A18BF232012F4803FC0
:10A630009A6A6FEA02426FEA12429A6218BF2420B5
:10A64000704700BF00ED00E010B5194B0246986A54
:10A650009C6A10F4805F14BF1720162014F4006F5A
:10A660009C6A18BF1820A40509D5986B986A000445
:10A6700004D51AB19A6A22F400429A6219200C4B4E
:10A680009A6A12F4806F9A6A18BF1A20D2050CD405
:10A690009B6A13F4005F18BF1C20054A936A43F4B9
:10A6A0007F43936200230B7010BD1B20F5E700BFB2
:10A6B00000ED00E010B51C4B0246986A9C6A10F051
:10A6C000100F14BF1120102014F0080F9C6A18BF3F
:10A6D0001220A40709D5586B986A000604D51AB150
:10A6E0009A6A22F080029A6213200F4B9A6A12F043
:10A6F000010F9A6A18BF142012F0200F9A6A18BF2F
:10A700001520D40658BF9B6A074B9A6A920642BF2F
:10A710005A6A22F400525A629A6A42F0FF029A621E
:10A7200000230B7010BD00BF00ED00E070B5444B7E
:10A730005B689CB00646C3F30803002585F31188C7
:10A74000BFF36F8F02F07F40B0F17F4F11D102F065
:10A750000C0008280DD010074CBF0E460125002222
:10A76000033B8DF80720032B05D8DFE803F01E5CC0
:10A7700060592E46F3E700249DF807309BB9682204
:10A78000314602A824F0B5FE099B002D53D0C3F337
:10A79000080222B96FEA53236FEA4323099302A9FF
:10A7A00020461EF0B8FF1CB070BD254BDA6A910739
:10A7B000E1D4DA6A002ADEDBDA6A5200DBD55A69B4
:10A7C000B16942F480725A61BFF34F8FBFF36F8F4C
:10A7D0005A6931F8021C22F480725A61BFF34F8F1C
:10A7E000BFF36F8F4DF60272914209D09A6AD2B2CE
:10A7F00042B10DF107010120FFF75CFF0446BBE702
:10A800003468B9E79A6A12F47F4F05D00DF1070159
:10A810000120FFF719FFF1E79B6AB3F5803FAAD348
:10A82000FFF7E8FEEAE70DF107010020E4E70DF18C
:10A8300007010020EDE723F4FF7323F00103ADE7E8
:10A8400000ED00E0044B5A6942F010025A615A6967
:10A8500022F008025A61704700ED00E0EFF3088033
:10A86000EFF3098101B57246FFF760FF01BD00BF3C
:10A8700018F00AF8202080F3118808484FF400618E
:10A88000401880F30988EFF314800221084380F315
:10A890001488BFF36F8F00F0CDF80000907A00208D
:10A8A000BFF34F8F0549064BCA6802F4E0621343B9
:10A8B000CB60BFF34F8F00BFFDE700BF00ED00E0AE
:10A8C0000400FA05084B9B6883420BD1EFF3058324
:10A8D00043B1064B5A6842F080525A605A6A22F4D9
:10A8E00000425A621BF02EBFF056002000ED00E03F
:10A8F00020498A6882F8C1E04FF030001044EFF33D
:10A90000098C80E8F01F1EF0100F03D102F18000C7
:10A9100080EC108A202080F31288BFF36F8F164FCF
:10A920004FF000668A698A603E60506F134C206069
:10A9300092F9C1E0906F0023936780F311881EF0B5
:10A94000100F03D00023E1EE103A03E002F1800083
:10A9500090EC108AEFF3148323F0040383F314883C
:10A96000BFF36F8F02F1300090E8F01F8CF309887D
:10A9700070470000F056002004ED00E08C1E00201F
:10A980001EF0040F0CBFEFF30880EFF3098081691C
:10A9900011F8021C0229FFD001B572461EF0C1FE5B
:10A9A00001BD00BF40B2002807DB044A4109012372
:10A9B00000F01F00834042F82130704700E100E0C2
:10A9C00040B200280CDB4309064900F01F00203389
:10A9D0000122824041F82320BFF34F8FBFF36F8FD6
:10A9E000704700BF00E100E0054B420900F01F0086
:10A9F00053F82220012303FA00F01040704700BFF3
:10AA000000E100E040B20028A8BF00F1604001F181
:10AA10000101B8BF064B4FEA4111ACBF00F56140E0
:10AA200000F00F00C9B2B4BF195480F8001370478A
:10AA300014ED00E0144A08B5144B22F07F029A602E
:10AA4000BFF34F8FBFF36F8FD3F8882022F47002CB
:10AA5000C3F88820D3F8882042F4A002C3F88820E5
:10AA60004FF04042C3F83422BFF34F8FBFF36F8FD4
:10AA70000023E1EE103A1AF0BBFD1BF09BFF00F043
:10AA80007BF81AF0F5FD00BF0060020000ED00E069
:10AA900042F8203C009B42F81C3C019B42F8183CC9
:10AAA0000A49029B42F8143C4FF0807342F8043C80
:10AAB00021F00101002342F8081C203A83674FF47B
:10AAC0007D430265C0F8C030704700BF198D020099
:10AAD000104B9B6883421AD1EFF30580B8B9EFF3AE
:10AAE0001181202282F31288BFF36F8F1A7B22F02C
:10AAF00002021A73EFF3148323F0040383F3148820
:10AB0000BFF36F8F81F31188BFF36F8F70476FF0C2
:10AB100015007047F056002000B50E46154600237C
:10AB2000E1EE103AEFF3148323F0040383F3148867
:10AB3000BFF36F8FBFF36F8F084B426F9860084B66
:10AB40001A602C4686F309880020064B9847204659
:10AB5000002100220023044C204700BFF0560020B3
:10AB60008C1E002041970400198D0200014B102219
:10AB70001A61704700ED00E0044800232021C2184C
:10AB80000133302B82F80013F9D1704700E100E067
:10AB900008B5EFF30583064A103B02EBC30152F8F8
:10ABA000330049688847BDE80840FFF713BD00BF80
:10ABB00054FF0400024B034A0348012100F066B829
:10ABC000000004200000002060090500084AC2F8C7
:10ABD00098000B6823F01F03034343F01003C2F8EF
:10ABE0009C308B6843F00103C2F8A030704700BF6F
:10ABF00000ED00E02DE9F043DFF8608085B00E46FF
:10AC00001F4604464FF00009B14523DA6068D8B109
:10AC10003FB1411E08421BD11F2819D92368194290
:10AC200016D1236801931EF0AEFDA368034303937E
:10AC3000D8F89050C5F30725D0B2013DA84207D8F7
:10AC400001A9FFF7C3FF421C09F101090C34DBE73E
:10AC50006FF01502104605B0BDE8F08300ED00E08E
:10AC6000044B0522C3F89420BFF34F8FBFF36F8FBF
:10AC7000704700BF00ED00E0BFF35F8F024B002282
:10AC8000C3F89420704700BF00ED00E010B5034CFE
:10AC900001232278FFF7AEFF207010BDCD570020B2
:10ACA0002DE9F043534B544CD3F890302568C3F34F
:10ACB00007239D4285B000F29A80FFF7DDFF002058
:10ACC0000C2685421AD14D4C4D4F25706846FEF733
:10ACD0001FFBDFF82081DFF82C9106460025AE42ED
:10ACE00013D1237843490020D1F89020C2F30722E2
:10ACF000934276DBFFF7B4FF002042E0616806FB79
:10AD00000011FFF763FF0130DBE7009800EB05114E
:10AD10004FEA051CCB683B40B3F5000F48D00AD87A
:10AD2000B3F5001F30D0B3F5800F36D0B3F5801FD8
:10AD300010D00135D3E7B3F1807F42D0B3F1007F6B
:10AD4000F7D150F80C3088684A681EF01CFD40F4BA
:10AD5000802009E050F80C3088684A681EF013FD26
:10AD600040F0885040F43020CDE901230390D8F81A
:10AD700090302078C3F30723013B98422AD96FF023
:10AD8000150005B0BDE8F08350F80C3088684A68BB
:10AD90001EF0F9FC40EA0900E6E750F80C3088683C
:10ADA0004A681EF0F0FC40F0007040F40030DBE731
:10ADB00050F80C3088684A681EF0E5FC40F082705C
:10ADC000D2E750F80C3088684A681EF0DCFC40F08E
:10ADD0008870C9E701A9FFF7F9FE237801332370D2
:10ADE000A7E7C1F89830C1F8A00001337CE74FF025
:10ADF000FF30C6E700ED00E06C090500CD570020EC
:10AE00000000F0FF0000081108B50649064821F0CF
:10AE10000701C1F1005202F580221DF045FD00201E
:10AE200008BD00BF27C60020901E002003484FF039
:10AE3000FF324FF0FF331AF095BD00BFF40300203E
:10AE400001481AF007BE00BFF403002038B50546DC
:10AE5000FFF7ECFF08482A4608211DF0BDFC044618
:10AE600028B925B124F008FF044B0C221A50FFF733
:10AE7000E7FF204638BD00BF901E00200C000000F8
:10AE800010B50446FFF7D2FF214603481DF06CFCC5
:10AE9000BDE81040FFF7D4BF901E002070B5A0FBA6
:10AEA00001543CB92846FFF7D1FF064640B90026B9
:10AEB000304670BD24F0E0FE044B0C221A50F6E739
:10AEC0002A46214624F03DFBF2E700BF0C000000BB
:10AED00070B54169867A0B4D044659B1437ADB0758
:10AEE00006D42C2303FB06535B6A1B689B689847B8
:10AEF000002363612C20214606FB0050BDE8704012
:10AF000023F0C2BF100A0020024B2C2202FB0030AB
:10AF1000704700BF100A0020827A064B2C2101FBEB
:10AF200002339A6A1B7F1B33801A23F00303B0FBA2
:10AF3000F3F07047100A002038B5074B827A2C24B2
:10AF400004FB02335B6AD3E901240C601568FFF748
:10AF5000E3FF04FB005038BD100A00202DE9F04348
:10AF600085B005466846039190461C4624F0F7F9E3
:10AF7000DDE90067EFF31189202383F31288BFF323
:10AF80006F8F6B8B002B41D02A8B9A4225D90022E0
:10AF9000002328461AF0AEFD0446F0B189F311886B
:10AFA000BFF36F8F039B002B41D032463B46684670
:10AFB00024F0F9F9A27A264B2C2101FB023320461A
:10AFC0005B6A1B6803A91D68DDE90023A84760616F
:10AFD00070BB2046FFF77CFF24E0698B4B1E6B8320
:10AFE00089F31188BFF36F8F2B7F2A8BAC6A1B33D9
:10AFF00023F00303521A02FB0344154B154AEB1AC4
:10B000009B105343A3722B7FE372CBE789F3118824
:10B01000BFF36F8F2346424628461AF06BFD044665
:10B020000028BFD10024204605B0BDE8F08363614D
:10B03000012300252381039B6382E27A6560294610
:10B0400004F1180024F07DFA63692582E360EAE7E1
:10B05000100A0020A38B2EBA70B50C4C2C2500B919
:10B0600070BD037A4668013BDBB20372002BF7D157
:10B07000C3604360837A05FB03431B6A13B198479F
:10B080003046ECE7FFF724FFFAE700BF100A002084
:10B090000E4A0123C2F840354FF080424FF08051F4
:10B0A000C2F87835D1F83001082808D1D1F8341128
:10B0B000052904D80648415C09B1C2F838364FF07A
:10B0C00080430122C3F880250020704700E0014042
:10B0D0000D2F050020B1034B800143F001031847F9
:10B0E000704700BF4003050008B5044823F0E7FCA3
:10B0F00000280CBF6FF01200002008BD14FE0400F1
:10B1000010B503460548826814688AB21946A047FC
:10B110000028B4BF6FF00400002010BD14FE04002E
:10B120002DE9F341254CBFF35B8F1F462368BFF326
:10B130005B8F1646DA0705462BD520B96FF0010064
:10B1400002B0BDE8F08101A91EF0CFF91C4980468C
:10B150000246284624F08BFBE8B9BFF35B8F2368D7
:10B16000BFF35B8FC3F3C0081B0712D4A4F1D4054F
:10B17000072229463846B047062895BF44F8D48CA4
:10B180000723C5F80380B0FBF3F094BF85F8078070
:10B19000E8710020D4E728460A49424624F067FBBC
:10B1A00005460028CAD1102204F19C013846B04758
:10B1B0000028EEDB044484F89C50EAE7D400002029
:10B1C0004A2E05002D2F05002DE9F04188B09C790D
:10B1D000DDF838805D791E79DF7893F802C093F846
:10B1E00001E01B78B8F1000F0ED0CDE90638CDE9AB
:10B1F00004CE1346CDE90267CDE90045084A1BF0AD
:10B2000001FE08B0BDE8F081CDE905E3CDE9037C9E
:10B210001346CDE90156034A00941BF0F3FDF0E715
:10B22000322F0500562F050070B504468CB01E461F
:10B230001546A2B129B10A4602A804211DF08DFBD2
:10B2400002A900912B462246242103A8FFF7BCFF48
:10B25000109A314603A8FEF75DFF0CB070BD03469F
:10B26000044A242103A81BF0CDFD0028F0DA6FF07A
:10B270001500F2E7772F050007B5064B0648DA7987
:10B28000C2EBC202009200221146FFF7CDFF03B0CD
:10B290005DF804FB000000204A2E050030B504468E
:10B2A0008DB0154692B129B10A4602A804211DF0BD
:10B2B00054FB02A900912B462246242103A8FFF744
:10B2C00083FF03A81EF0E6F80DB030BD0346054A23
:10B2D000242103A81BF096FD0028F2DA6FF0150078
:10B2E000F2E700BF772F050007B5009313460A4623
:10B2F00001460348FFF798FF03B05DF804FB00BF69
:10B30000703105000A4601460148FFF7C7BF00BF7C
:10B310007031050007B5009313460A4601460348FD
:10B32000FFF782FF03B05DF804FB00BF6A31050040
:10B3300007B5009313460A4601460348FFF774FF1A
:10B3400003B05DF804FB00BF5B31050007B50022C8
:10B350000346009103481146FFF766FF03B05DF80E
:10B3600004FB00BF6231050007B5002203460091CF
:10B3700003481146FFF758FF03B05DF804FB00BF18
:10B380002D2F050008B502481AF0FAFD002008BD6F
:10B390000804002070B51D4CBFF35B8F2368BFF31A
:10B3A0005B8F13F0010F254622D094F89C30A4F156
:10B3B000D40613B9164800F021FBF379D3B1BFF3DB
:10B3C0005B8F2368BFF35B8F5A0701D400F010FB3B
:10B3D000BFF35B8F55E8003F23F4006245E800218E
:10B3E0000029F7D1BFF35B8F1B0501D5FFF7CAFF1B
:10B3F000002009E001F096F830B9F379002BDED196
:10B4000001F0A0F80028DAD070BD00BFD400002001
:10B410007D35050007B5009313460A4601460348EB
:10B42000FFF702FF03B05DF804FB00BFAF3105007A
:10B430000A4601460148FFF731BF00BFAF310500A2
:10B4400030B50A4D0A4B85B0002428460293039478
:10B4500023F0F2FD02AB0093284606490A234FF47D
:10B46000AF621AF093FD204605B030BDA80D002054
:10B47000802F0500905E0020014601481AF0C4BDEF
:10B48000A80D00200146014823F0ABBDA80D002007
:10B490000378012B30B513D0022B27D07BB9194B81
:10B4A0000A4603F1100453F8045B42F8045BA3421C
:10B4B000F9D11B78137043884B731B0A8B7330BD13
:10B4C000104B0A4603F1100453F8045B42F8045B86
:10B4D000A342F9D11B78137043684B73C3F307225F
:10B4E0001B0CCB731B0A8A730B74E8E700F1100383
:10B4F00050F8042B41F8042B9842F9D103780B70D3
:10B50000DDE700BF892F050008B51EF0DCFA1AF050
:10B51000FDFF044B1B680BB10A209847BDE80840AB
:10B520001BF008B89C1E002038B5054605481EF0E3
:10B5300040F9044620B101210C301EF09BF925761C
:10B54000204638BDEC0A00200F2810B50ED80D2873
:10B550000ED90B481EF02DF9044628B101210C30FC
:10B560001EF088F902232376204610BD1328F0D060
:10B5700009B10448EEE7BDE810400220FFF7D4BF50
:10B58000180B0020680A002070B5C6683378B6F83A
:10B59000014083B90F21204601F0C2FFF378054630
:10B5A00050B90A4A118831B96FEA04506FEA105055
:10B5B0001080074A137070BD0373012101F02CFF46
:10B5C0002846BDE8704001F0FDBE00BF30570020A6
:10B5D000CE57002010B5084C0146062294F86F00A3
:10B5E00002F04EFA38B994F86F000449BDE81040F3
:10B5F000052202F045BA10BD00000020132F0500FF
:10B6000010B5012104460C301EF066F92146034AAC
:10B610000078BDE8104000231EF067BB600A0500FB
:10B6200010B5012104460C301EF056F92146034A9C
:10B630000078BDE8104008231EF057BB200A050023
:10B6400070B52F481EF0CEF80446002857D0017E72
:10B65000022932D0082902D1038A032B02D8FFF72E
:10B66000FBFC20E004210C301EF036F9FF22438859
:10B6700006886276228AC6F30B009A42A08301D024
:10B680002046ECE70F2101F04BFF05460028F7D0DC
:10B6900001F07AFF320B6076214628461FF0CCF885
:10B6A000284601F08FFE174BD3F84C313BB3BDE871
:10B6B00070401549154823F094BC038A012BCED95C
:10B6C0000C301EF009F9054600781EF071FA10F0F2
:10B6D00002060DD10E4A0F490F4840F6D3331DF034
:10B6E0002FF986F31188BFF36F8F0323184602DF0B
:10B6F0000A4A2878062321461EF0F7FAC0E770BDF3
:10B700004C0100200000002028040020900E0020A2
:10B710009A2F0500CE2F0500FC2F0500F00905002B
:10B720002DE9F047884616468246002879D0BFF3B7
:10B730005B8FDFF8F890002359E8004F49E80032AA
:10B74000002AF9D1BFF35B8F002C6AD02046FFF7A7
:10B75000E3FB354D0C2303FB00502746438853453C
:10B7600011D0BFF35B8F59E8003F49E80072002A0F
:10B77000F9D1BFF35B8F002B53D01F463846BDE88D
:10B78000F047FFF769BCA6420FD020461EF00CF828
:10B7900004F10C0902230121484623761EF06AF8C1
:10B7A000328AF16848461EF076F82046FFF7B4FB6F
:10B7B0000C2606FB00504368ABB1B8F1000F12D164
:10B7C0002046FFF7A9FB06FB005001214268D2E9A1
:10B7D0000003127A03F01F06B1405B09DAB100EBF7
:10B7E00083001EF0F7F92046FFF796FB0C2606FBB8
:10B7F00000508368002BC1D02046FFF78DFB7043BB
:10B8000005F800802046FFF787FB06FB0055A86877
:10B810001AF0A2F9B2E7C94300EB83001EF07CFAEC
:10B82000E1E7BDE8F08700BFA01E0020480100202E
:10B8300010B5C1E900239DF808300B720C46FFF7E4
:10B840006BFB034B0C2202FB00335C6010BD00BF9E
:10B85000A01E00202DE9F0474FF0FF3206464FF0C2
:10B86000FF33184888461DF0A4FF044638B300F1A2
:10B870000C07012138461DF0FDFF012323762046E9
:10B88000FFF74AFB104D4FF00C0909FB00504FF039
:10B89000000A46802046FFF73FFB09FB0050C0F836
:10B8A00008A02046FFF738FB09FB00550321384666
:10B8B000C5F804A01DF0E9FF068080F8028020464C
:10B8C000BDE8F087C00A0020A01E00200138C0B2E9
:10B8D00002289ABF014B185C00207047DF3005003A
:10B8E00029289ABF014B185C09207047B530050024
:10B8F000034B0146D3F86C0182689268104700BF81
:10B90000000000202DE9F843044600F10C06304603
:10B910001DF0F2FFB4F81080B8F1010F054604D80D
:10B920002046BDE8F843FFF797BB304602211DF0E3
:10B93000D3FF074600781EF03BF910F001090646D8
:10B940000DD10F4A0F49104840F6F2731CF0F8FF72
:10B9500089F31188BFF36F8F0323184602DF052395
:10B960000A4A387821461EF0C0F9B307D8D5636972
:10B97000A4F8108013FA85F5E560BDE8F88300BFF0
:10B980009A2F050019300500FC2F0500C809050095
:10B9900038B50C461AF0BAFD237E022B0AD0082BCC
:10B9A00019D121460F481DF008FF0F490F4823F019
:10B9B00018FB0BE0E36818781EF0FAF8C20705469A
:10B9C00002D52046FFF79EFFAB07EAD400241AF009
:10B9D000B1FD204638BD2046FFF73EFB6FF0150451
:10B9E000F5E700BF4C01002028040020900E002045
:10B9F000014804211EF0EEB8D400002038B50546F9
:10BA0000FAF7AAFB1028044615D80C482946FAF77D
:10BA100091FB70B122462946084823F06AFD084888
:10BA200003190022214600F5B87083F87021FFF752
:10BA30009BFC002038BD6FF00B00FBE7700100207D
:10BA400000000020004870477001002001481AF0F3
:10BA500097BA00BF1804002038B505460C4619B93E
:10BA6000FFF7F8FE0446A8B140F635439D4209D1E0
:10BA70002046FFF73DFF054650B12046FFF7ECFAA0
:10BA8000284638BD0548214623F0F3F9FFF7DEFFCD
:10BA90000025F5E76FF06805F2E700BF54010020CC
:10BAA00038B502460B46244DD5F8541109B900208B
:10BAB00038BD05F598701AF089F80028F7D10022F2
:10BAC000002305F5AA701AF015F8044668B91B4A58
:10BAD0001B491C4840F6E2331CF032FF84F3118806
