:020000022000DC
:1060000080CD0020E9F1020003440500D5F1020033
:10601000D5F10200D5F10200D5F102000000000028
:10602000000000000000000000000000F9F2020083
:10603000D5F102000000000069F20200D5F1020073
:1060400009F50200314E040009F5020009F50200CD
:1060500009F5020009F5020009F5020009F5020040
:1060600009F5020009F5020009F5020009F5020030
:1060700009F5020009F5020009F5020009F5020020
:1060800009F5020009F5020009F5020009F5020010
:1060900009F5020009F5020009F5020009F5020000
:1060A00009F5020009F5020009F5020009F50200F0
:1060B00009F5020009F5020009F5020009F50200E0
:1060C00009F5020009F5020009F5020009F50200D0
:1060D00009F5020009F5020009F5020009F50200C0
:1060E00009F5020009F5020009F5020009F50200B0
:1060F00009F5020009F5020009F5020009F50200A0
:106100004FEA4102B2F1E04324BFB3F5001CDCF1D9
:10611000FE5C0DD901F0004C4FEAC0024CEA507011
:10612000B2F1004F40EB830008BF20F00100704740
:1061300011F0804F21D113F13872BCBF01F0004043
:10614000704741F480114FEA5252C2F11802C2F175
:10615000200C10FA0CF320FA02F018BF40F00100F6
:106160004FEAC1234FEAD32303FA0CFC40EA0C00A8
:1061700023FA02F34FEA4303CCE77FEA625307D1E5
:1061800050EA01331EBF4FF0FE4040F4400070471C
:1061900001F0004040F0FE4040F40000704700BFB6
:1061A00053B94AB9002908BF00281CBF4FF0FF317E
:1061B0004FF0FF3000F00CB8ADF1080C6DE904CEE3
:1061C00000F022F8DDF804E0DDE9022304B07047B6
:1061D000704700BF10F8012B11F8013B012A28BFBE
:1061E0009A42F7D0D01A7047034611F8012B03F8F2
:1061F000012B002AF9D17047034613F8012B002A1E
:10620000FBD1181A013870472DE9F04786468C46B5
:106210000846089E154674461946002B40F0C28079
:106220008542B2FA82F245D94AB1C2F1200300FA9E
:1062300002FC2EFA03F3954043EA0C0C94404FEA1B
:10624000154EA8B2BCFBFEF8230C0EFB18CC08FBC5
:1062500000F943EA0C43994528D9EB1808F1FF37B8
:1062600004D2994502D9A8F102072B44A3EB0903F4
:10627000A4B2B3FBFEFC0EFB1C330CFB00F044EAA3
:106280000344A04214D92C190CF1FF3304D2A042CC
:1062900002D9ACF102032C44241A43EA07401EB190
:1062A000D440002334607360BDE8F0874746DDE7E3
:1062B0006346F1E792BB431B01214FEA154EAFB293
:1062C000B3FBFEFC200C0EFB1C330CFB07F840EA72
:1062D0000343984562D9EB180CF1FF3004D298457E
:1062E00002D9ACF102002B44A3EB0803A4B2B3FB28
:1062F000FEFC0EFB1C330CFB07F744EA0344A742E9
:106300004ED92C190CF1FF3304D2A74202D9ACF1BB
:1063100002032C44E41B43EA0040C0E7C2F120031F
:1063200020FA03F1954090402EFA03F303434FEA1D
:10633000154EAFB2B1FBFEFC0EFB1C10190C0CFB92
:1063400007F841EA0041884504FA02F422D96918A5
:106350000CF1FF3004D2884502D9ACF10200294487
:10636000A1EB08019BB2B1FBFEFC0EFB1C110CFB68
:1063700007F743EA01439F420ED9EB180CF1FF31B6
:1063800004D29F4202D9ACF102012B44DB1B41EA4B
:10639000004192E76046E3E76146F7E76046A3E71E
:1063A0006346B7E7834206D916B9002108467BE762
:1063B000C6E900E0F9E7B3FA83F78FB9834201D366
:1063C000724508D8BEEB020460EB030301209C4633
:1063D0001EB9002168E73846FAE7C6E9004CF8E73D
:1063E000C7F1200CBB4022FA0CF41C432EFA0CF12E
:1063F00020FA0CF3B84001434FEA14490EFA07F5AE
:10640000B3FBF9F81FFA84FE09FB18300B0C08FBEC
:106410000EFA43EA00439A4502FA07F240D9E3181C
:1064200008F1FF3004D29A4502D9A8F102002344B2
:10643000A3EB0A0389B2B3FBF9F809FB183308FB95
:106440000EFE41EA03418E452CD9611808F1FF3355
:1064500004D28E4502D9A8F10203214443EA004048
:10646000A0FB0298A1EB0E014145CE46434602D364
:1064700006D14D4504D2B9EB020E68EB0403013896
:10648000002EA6D0B5EB0E0261EB030101FA0CFC65
:1064900022FA07F34CEA0303F940C6E9003198E712
:1064A0004046C5E74346D9E7F7B5002101AA40F6C3
:1064B00003400AF0CBF9044600286CD1019CE36844
:1064C0001B789BB90BF036FCBFF35B8FBA4B1A6895
:1064D000BFF35B8F02F00902BFF35B8F53E8001F2D
:1064E00043E800200028F9D1BFF35B8F204609F074
:1064F0006FFA01AA002141F203000AF0A7F904464D
:10650000002848D1019AAD4DD168D1F80100D1F8E9
:10651000051005F1780303C3104609F059FA214626
:1065200001AA41F201000AF091F9044698BB0198D2
:10653000C3685A7885F870205A88A5F872201A79AD
:1065400085F87120B3F80720A5F87420B3F805305A
:10655000A5F8763009F03CFA214601AA41F2020082
:106560000AF074F90446B0B9019FFA6805F1800693
:10657000531C413218685968344603C408339342A7
:106580002646F7D1384609F023FA95F87C305B06A9
:1065900004D46FF01204204603B0F0BD01AA00211C
:1065A00042F203000AF052F904460028F3D1019B9D
:1065B000834EDA68D2F80100D2F8051003C61846F7
:1065C00009F006FA214601AA42F202000AF03EF959
:1065D00004460028DFD1019CE368B3F8012091B2A2
:1065E00049B1D97839B1A5F80421DA78114606F114
:1065F000280034F0D2FF204609F0EAF995F87C60D3
:106600001F2316F02006A5F8203118D1022140F6EC
:106610006D4009F075FF0446002800F0C480022197
:106620000C302DF0A4FF0123037046702146324642
:1066300040F66D400AF00AF904460028ABD195F8FF
:106640009C301F0712D501AA002142F21C000AF05B
:10665000FDF8044600289ED10198C368D3F80120B4
:10666000D3F80530C5E9382309F0B2F995F8D830E8
:106670009E0624D50DF1020168462EF02FFC04463B
:10668000002888D1042142F2240009F039FF06468F
:10669000002800F0888004210C302DF068FFBDF840
:1066A00000300380BDF8023043802246314642F27A
:1066B00024000AF0CBF8044600287FF46CAF95F86C
:1066C000D8305C0610D501AA002142F22A000AF057
:1066D000BDF8044600287FF45EAF0198C3685B787C
:1066E00085F8223109F074F9082142F2010009F01D
:1066F00007FF0446002856D008210C302DF037FF44
:1067000095F8D81011F0400F024640F2022308BF5E
:10671000032388074CBF43F02C0043F00C0095F88E
:10672000D9308F0648BF40F0400013F0090F18BF62
:1067300040F40060CE0748BF40F0100000212EF06A
:10674000A3F92146002242F201000AF07FF8044634
:1067500000287FF420AF95F87C30B5F80411980636
:1067600024D4C9B901AA41F205000AF06FF8044621
:1067700000287FF410AFB5F80431019C4BB9E368F1
:10678000B3F80120A5F804219A880E48114634F088
:1067900004FF204609F01CF9082140F6014009F0E9
:1067A000AFFE044680B96FF06804F4E60029F3D127
:1067B0006FF00404EFE600BFF4000020200000208A
:1067C000F80000202801002008210C302DF0CFFE19
:1067D00095F8D830D907024653BF4FF000512CA18D
:1067E000D1E9000128482EF04FF92146002240F659
:1067F00001400AF02BF8044600287FF4CCAE014695
:1068000001AA4FF601400AF021F8044620BB019886
:1068100009F0DEF8214601AA4FF602400AF016F808
:106820000446C8B90198C368B3F80130A5F8C1306F
:1068300009F0CEF895F8C1305B070DD501AA2146C5
:106840004FF603400AF002F830B90198C3685B784C
:1068500085F8C03009F0BCF82EF05EFD0446002833
:106860007FF499AE0CF0A4FD044600287FF493AEAB
:10687000EB79002B3FF48FAE082104482EF072F81C
:1068800009F02EFF87E600BF10880002F400002008
:1068900090880002008000202DE9F843D0E90738F5
:1068A000856903EB08042F34A5420F46164619D814
:1068B000DFF87080A3FB080117A3D3E90023FFF7DB
:1068C0006FFC0346601BA0FB080123F07F4412A36A
:1068D000D3E90023FFF764FC20F07F403C60306088
:1068E000BDE8F883DFF83C900BA3D3E90023A5FBB8
:1068F0000901FFF755FC20F07F4409480A2106A34F
:10690000D3E90023E8FB0901FFF74AFC20F07F40B0
:106910003C603060BDE8F8838D49FD1A0700000037
:1069200000166BF100CA9A3B9FED0D7B124B134A88
:106930001348144910B483ED007B9FED0B7B82ED6F
:10694000007B9FED0B7B104B4FF0FF34002281ED5D
:10695000007B04601A605DF8044B14F099B800BF26
:10696000FFFFFFFFFF1F000000000000000000000D
:106970001F00000000000000B0010020E0350020F2
:10698000D8680020A8010020D06800200000000086
:10699000002800F05F812DE9F04FB54C94F86A2093
:1069A00012F001058DB040F0A78194F82500FF2377
:1069B00000F0030084F826301DF000FD94F86A0012
:1069C000420727D494F8292094F8353004EB82024A
:1069D00004EB8303D66AD3F8388086B1A4483146E5
:1069E00016F002F833785B0605D5062110F07CFE20
:1069F000002800F083819E48414615F0F5FF33786A
:106A000013F00E0F40F0B780236A93B10C200DB045
:106A1000BDE8F08F2A4604F16B01C0F3C0001DF001
:106A200071FEFF2884F82600CCD028461DF00CFD0E
:106A3000C8E713F0FFFA8146002800F0718113F0D7
:106A400005FB8246002800F0688116F017FC054619
:106A5000002800F06781D0F894004FF6FF732B8672
:106A600005F11C0B002800F04F8105F1840105F1B0
:106A7000880210F045FEB5F882307E4A23F4EF63B9
:106A800023F0070343F48C7343F00103A5F882302D
:106A90001346D2F80120C5F8AB21C5F8B12113F88F
:106AA000012B9B88A5F8AF31A5F8B53195F8AA312F
:106AB00002F0010262F3000362F3410385F8AA3198
:106AC00095F8433003F03F0363F07F0385F84330CC
:106AD00095F89A3023F0070385F89A3095F84830F6
:106AE00023F00F03002785F848304FF4C023C5F882
:106AF00098312846C5E91577C5F89470A5F89870BF
:106B000085F84570EF86C5F83A70EF65A5F89E7177
:106B1000A5F8947119F098F985F86071C5F8649139
:106B200016F07AFE95F8A43160F3020385F8A431DB
:106B300016F078FE95F8A43160F3C50385F8A4310A
:106B400095F8903167F3410385F89031012128468B
:106B500017F0C2FA05F1E00018F01EFFC4E9189A18
:106B6000C4F820B0C5E905772F70ED611EF0A2FFD3
:106B7000002840F0C58094F824300121C3F342037B
:106B80000DF12B008DF82B3010F058FF0246002835
:106B900062D098F80110304615F0E0FC31233649F8
:106BA000A360364BB4F86870A0FB01010025C01843
:106BB00041F107012CA3D3E90023C4E90555257051
:106BC0006560E560FFF7ECFA206112F019FB00F157
:106BD00009083FB9357805F00F05A5F10105B5FAAB
:106BE00085F56D0994F82400236965F3000010F021
:106BF000010584F824004BD0214A0992002010603E
:106C00000225204A204F04930BAE019305920321E5
:106C1000CDE90200069443460090089607972A465D
:106C20000B9512F08BF9314613F0C6FAA0B917494B
:106C300005914AF2D8330093CDE90300CDE9010074
:106C40000797089606944346012203210B9512F0FC
:106C500041F943E015F0CEBB236A002B3FF4D6AEDA
:106C600015F084FBD2E600BF8D49FD1A0700000035
:106C7000906900206E14060000CA9A3B8C49FD1AE8
:106C800084690020D9C50300A1930300B5C00300A7
:106C90002B4A2C48049303F2471306940295912142
:106CA0001360A7FB000301FB0731274B0793274B1A
:106CB00005934FF6FF730992022703930BAE1EA3B1
:106CC000D3E900230B970896FFF76AFA4346CDE90C
:106CD00000503A462846032112F030F9314613F0AD
:106CE0006BFA0028B8D194F86A3043F0010384F8B5
:106CF0006A3016F0A3F860B1002088E6122086E61C
:106D000015F034FB032082E605F18C00C5F89400F1
:106D1000ABE601201DF034FBEEE7484613F090F996
:106D2000072074E6504613F097F9484613F088F9A7
:106D3000F6E700BFAFF300808D49FD1A07000000A1
:106D400084690020002AE784A1930300D9C50300C9
:106D500070B590F824308AB0C3F342030D46044660
:106D600001210DF1230016468DF8233010F066FE48
:106D700071780246284615F0F1FB1F491F4AA0FB17
:106D80000131981841F1070119A3D3E90023FFF756
:106D900007FA23699842054621D21B1A0022019264
:106DA000174A0293174BA21AA3FB0232022192093F
:106DB00000230A4409AE099113490591CDE9033333
:106DC0000321D2B206960093184612F017F9314605
:106DD00013F0F2F938B9256100200AB070BDFBD973
:106DE000C21A0023DBE70C200AB070BDAFF30080AD
:106DF0008D49FD1A0700000000CA9A3B8C49FD1A14
:106E00009069002089888888A19303000000000011
:106E100038B5194C9DF810E094F848C01CF00105F5
:106E200023D163F3420C400194F83230A1874FEA3A
:106E3000CE0E0EF0180E00F0200040EA0E0023F0F7
:106E4000380303430D4884F832309121A2FB00033C
:106E500084F848C001FB023105A3D3E90023FFF702
:106E60009FF9C4E91000284638BD0C25284638BDD6
:106E70008D49FD1A07000000E8350020002AE7844C
:106E800010B504469DF8080022844FEA411CC0005A
:106E9000A17D00F018000CF0200C4CEA000C0C480E
:106EA00021F038014CEA010CA3FB0002912184F887
:106EB00016C001FB032104A3D3E90023FFF770F9F7
:106EC000606210BDAFF300808D49FD1A070000001D
:106ED000002AE784000000002DE9F047044600F195
:106EE000350190F8480094F832305B4DDFF880812E
:106EF000C0F3400060F386138CB084F8323012F097
:106F0000D3F994F83220A38F5448E46102F0790257
:106F1000002784F832209121A3FB0002C4E9057701
:106F2000277001FB03214AA3D3E90023FFF738F9B7
:106F3000651B626C4A4B6760AD08A3FB053502F127
:106F40000903984298BF3A46C5F3470522644FF0BB
:106F500031028CBF19460146A26005EB4502E7608D
:106F6000216148F82210064612F04AF9236A00F11E
:106F700009074FEA450A002B4AD00DF12C09AA4413
:106F800008EB8A030993CDF820900694A38F334829
:106F90004FF00008A3FB0002CDF80C80912101FB0B
:106FA0000321236904932F4B07932F4B05934FF035
:106FB000020A27A3D3E90023CDF82CA0FFF7F0F8AD
:106FC000104619464FF47A720023FFF7E9F80435AA
:106FD000EDB2CDE9016003213B462A46CDF80080A1
:106FE000404611F0ABFF494613F0E6F860B994F85B
:106FF000483043F0010384F8483015F0CBFC08B367
:1070000000200CB0BDE8F0870C200CB0BDE8F08784
:107010000DF12C09CDE90A3321694B460AAA032058
:1070200001F02AFA0028AAD10B99104808A3D3E945
:107030000023A1FB0001FFF7B3F80A9B20F07F4774
:107040001F449CE750461DF09BF9D9E7AFF3008041
:107050008D49FD1A07000000E8350020002AE7846A
:10706000BD86F21AA193030011CC030000CA9A3B1B
:10707000206A0020000000002DE9F04F05468BB08B
:107080008B46012002219946144621F09BF80022EC
:1070900002218246012010F083FB3F494FF4DC724D
:1070A000284610F00DFB461D3C4B0093F6B20195AF
:1070B0004B4632460121002011F0FAFF10F0FD0F7F
:1070C0000ED0374A3749384840F68F032CF074FA0F
:1070D000002383F31188BFF36F8F0323184602DF69
:1070E000324BA4FB0348204629A3D3E900234146A1
:1070F000FFF756F82E4B20F07F47A7FB03310722FE
:10710000E01A02FB071168EB01014FF47A720023C9
:10711000FFF746F8CDE90170CDF800B00895069567
:10712000296995F9434023480491234931EA240110
:1071300028BF01460591214C07944FF6FE7103913B
:107140004B4632460121002011F0C4FE10F0FD0F25
:107150000ED0134A1349144840F6A4032CF02CFA1D
:10716000002383F31188BFF36F8F0323184602DFD8
:10717000BAF1000F02D10BB0BDE8F08F012202215D
:1071800010460BB0BDE8F04F10F00ABBAFF3008023
:107190008D49FD1A07000000383600201DD203007B
:1071A00080F2050044F30500ACEC050000CA9A3BF0
:1071B0008D49FD1AA93404005D360400BDD10300D9
:1071C0002DE9F0418468228E4FF6FF739A428CB00D
:1071D00045D00546204619F029F92B7D012B00F0FA
:1071E0002281022B00F01581002B00F0F48094F82E
:1071F0006061002E40F010812B8A678F94F9432044
:10720000CDE90A6673B3002AC0F25A810023A4F8BC
:107210009A31AA7C238FFD1802F003030135012B5C
:10722000ADB23BD0B4F89E31002B00F005819D42F9
:1072300080F059815B1B9BB20022062BA4F89E3183
:10724000628740F2F68094F943309342C0F2508155
:10725000002326E09DF82710204616F001FC0CB014
:10726000BDE8F081002AB8BF84F88561238FAA7C2D
:10727000FD1802F003030135012BADB20ED0B4F8B6
:107280009A31002BCED0AB4240F23C815B1BA4F87C
:107290009A31B4F89E31002BC9D102E00023A4F842
:1072A0009E3194F8482063F3820284F848202946EE
:1072B0000DF12702204618F003FE7430CAD0B4F84E
:1072C00098312BB1AB4240F2EC805B1BA4F89831B3
:1072D000B4F894312BB1AB4240F2DA805B1BA4F8D6
:1072E0009431658F16B9AF4200F0C9800135ADB257
:1072F00094F8DD3013F0010731D1DDE90A130A46B5
:10730000002B40F0CC80002900F0BB801F461846BF
:10731000228EE4690694CDE9035605329A4D029017
:10732000CDE90017D2B201210020059511F066FECB
:1073300010F0FD0F93D012F069FF84428FD0934A72
:10734000934994484FF4AE632CF036F9002383F34D
:107350001188BFF36F8F0323184602DF7FE794F98C
:1073600043206FF30003002A84F8DD307FDB94F8BC
:107370008200C0F3C00100F007001EF0B3F9B4F8BA
:107380007A20B4F878301344628D03F23F1313442B
:107390000344814A81480721E3FB0021104678A37A
:1073A000D3E90023FEF7FCFEDDE90A1320F07F425B
:1073B00020692261904235BF171A801A00200027E9
:1073C0000A46002BA4D157EA010CA1D1002858D0BD
:1073D00019461F469CE794F89A3003F01803182BBF
:1073E0007FF405AFA18EB4F896218B1D9A42C4BFDD
:1073F000931F5B1AB4F89211CCBF9BB2134699420B
:1074000000F09C80A4F89231A4F89431A4F898215B
:10741000EDE63D2684F86061314620460CB0BDE8BB
:10742000F04116F01DBB0023A4F89831A4F8943164
:10743000DDE60126334634E7628E052A97BF013226
:1074400040F2E2434FF4FA7392B203FB02F2B4F853
:107450009C3142F2107101FB0323013BB3FBF2F3B9
:107460009BB2A4F89E31002B7FF4E1AE19E794F8AB
:107470008300012100F007001EF036F97FE7354652
:1074800036E7002D43D00027114638463B463FE7FC
:107490000023A4F89431204618F0B4FD21E73846C3
:1074A00036E712F01BFE0146A0B30023A4F8983182
:1074B000238EC3801B230371006812F0DFFD07E7F2
:1074C00094F885316BB3013B84F8853104F1E00811
:1074D000404618F0A3FAB8B3404618F09FFAB8B384
:1074E0000023638792E60821204616F0B9FAB6E633
:1074F000A7B9D4F888315A0813F0010336D1C4F87B
:107500008821A5E63E21204616F0AAFAA7E6002E1D
:10751000B9D1A4E60123A4F89831D9E6134601268F
:10752000BFE60AAA0BA92846FFF7B6F9DDE90A2348
:107530001343CBD0237884F88531C7E7B4F898118A
:1075400000297FF454AE5FE7FF2016F045FAC3E749
:107550000246D4E9210110F0EBF80028C0D194F8DC
:1075600048301B0744BFA38E63874FE642F00042BA
:107570001E46C4F888213B4693E600BFAFF3008067
:107580008D49FD1A0700000079D1030080F2050043
:1075900090F30500ACEC05008C49FD1A00CA9A3B3B
:1075A0002DE9F04F87B0CDE90432BDF844200378CF
:1075B0000292BDF84820BDF840A0BDF84C90878FDE
:1075C000019104460392002B00F0FC80013FBFB202
:1075D000A368D4F81CB1A7EB090292B2002B009269
:1075E0000ADAE168626823F0004391422CBF8B44C1
:1075F0009344A360ABEB030B94F88200C0F3C0018B
:1076000000F007001EF06EF8658E052D40F2E18057
:10761000009BBAF1050F15FB03F5ADB240F2E2484D
:1076200040F2E280B4F87A20B4F87830134403F2E0
:10763000D51303447C4A7D480721E3FB00214FF02A
:107640009613A36296231046A38575A3D3E900235E
:10765000FEF7A6FD564620F07F4040F2E24308FBCD
:1076600005F103FB06F6B1FBF6F81FFA88F5206179
:1076700006FB05F08142A84680F09680401A6B49CF
:1076800067A3D3E90023A0FB0101FEF789FD20F0E9
:107690007F408344E38EB4F824211344994494F842
:1076A0004330A9EB0709C844DB09A4F8368000F091
:1076B000A780E26C0099636D02FB113363651EF0D5
:1076C0004BFA074694F88401C0F342001EF046FAD4
:1076D000074406FB07F7564B07F5742707F23F27C9
:1076E000A3FB0737BF0C636DE76405FB07F0720867
:1076F0000344963A934228BF1346C4E91423059BDA
:107700004A4D40F2E24808FB03F3E3650023A0FB87
:107710000501C4F88C3142A3D3E90023FEF740FDF4
:10772000049BABEB000B4348A0FB0330800A08FB33
:1077300000F0A0FB05013AA3D3E90023FEF730FDDA
:10774000F71B20F07F45029BA386039BA4F89C3186
:1077500031462046A4F832A018F0EEFB364BA18E3D
:107760003344881DB3FBF6F39AB29042A4F89621F5
:1077700004D2C1F57F41FA310A4492B2019BA4F8C8
:10778000922113B10023A4F89E315B463A46294664
:107790002046FFF771FC94F8903143F0010384F820
:1077A000903107B0BDE8F08F091A20481CA3D3E937
:1077B0000023A1FB0001FEF7F3FC20F07F40ABEBC0
:1077C000000B67E7C38E1F44B0F824311F44BFB2DB
:1077D000FEE6009B013515FB03F5BAF1050FADB2CE
:1077E0004FF4FA783FF61EAF4FF096130AF10106F8
:1077F000A3629623A385B6B20A204FF4FA732EE74C
:10780000049B0A48A3FB000105A3D3E90023FEF76C
:10781000C7FC20F07F453746013594E7AFF3008081
:107820008D49FD1A070000008C49FD1A00CA9A3BD9
:1078300083DE1B435917B7D17FC3C9010000000085
:107840002DE9F04F04460B68077F1668D3F800A0B7
:10785000638CD0F81E0095B015464A7CADF84C30CC
:10786000FF2AC7F3801388460D9212908DF83F309F
:1078700076D199461A4612AB93E803000DF1400BFE
:107880001090ADF84410F8090AF1710127680A91C7
:107890005B460C900B9715F0CBFF0A99002847D157
:1078A00096F8AA310C9A0A9069F3410362F3000337
:1078B00086F8AA311098BBF80430C6F8B101A6F8D2
:1078C000B531DAF87130C6F8AB318B88A6F8AF3134
:1078D000E38D94F83010A9722B81D4F82A306B60B4
:1078E000D4F83A30C5F8223005F1220094F83E3041
:1078F0000371052110F0A2F895F8273000F03F0041
:1079000060F3050385F8273094F83F30C3F3040192
:1079100085F82810A18EE982012803F01F0389B29F
:1079200006D91B3303F01F030B2B01D80A9A59BB4E
:107930000022CAF8142095F82C300B9862F300034B
:1079400085F82C30E56801262146267112F08AFB65
:1079500028682E71294612F091FB15B0BDE8F08F12
:107960000DF1400B10460DF13F015A461CF078FA1C
:107970009DF83F90277F09F102095FFA89F98DF898
:107980003F9009F001027EE7D8F800305A60E38E9C
:107990002B83EB8A40F2E24909FB03F71146638E21
:1079A0000A93304618F0DCFA94F83F3096F88421B8
:1079B0005B0963F3430286F884211EF0CDF80C9036
:1079C00096F88401C0F342001EF0C8F80C9BC04A30
:1079D000034407FB03F303F5742303F23F23A2FBE5
:1079E00003239B0C2B637B08963B6B6394F831302D
:1079F00009FB03F36B64238FA6F89C3139463046AC
:107A000018F09AFAB34BB44AC6F8A0213B44B3FB32
:107A1000F7F39AB2A6F89621298B881D824204DDDD
:107A2000C1F57F41FA310A4492B2A6F892216B68FF
:107A3000C6F88831234613F81C2FC2F34019DA0721
:107A400000F103814FF48073A3839AF826001CF0A1
:107A500071FF04F12B03002800F0F380626AC4F880
:107A60002B20228D9A800D9BFF2B00F02681BDF8E4
:107A70004C301298A4F82930C4F82500BBF8043023
:107A8000A4F8233010989DF83F30C4F81F00A37766
:107A9000EB8A63862B8BA386B6F89C31E38696F837
:107AA0008431C3F3420384F83830304615F0F2FBDA
:107AB000A882E08021460B98D8F8044012F0D2FA50
:107AC000AB8AE3801C23D4F800B02371B9F1000F16
:107AD00040F0D28084F81C902146584612F0CEFA2D
:107AE00095F86700B5F85C90B5F85E40012100F0AC
:107AF00007001DF0F9FD4C4404F2D514DFF8E491C1
:107B00000444834675484FF096130721C5E90333B3
:107B1000E4FB090131230024B36074606AA3D3E954
:107B20000023F460FEF73CFB20F07F4030612D6BBA
:107B30000A9A7D1BD8F80C7040F2E24303FB0277EF
:107B40000221224601200FF02BFE504614F008FFC0
:107B500007F2B3470246A7EB0B07A7FB090117463D
:107B600059A3D3E90023FEF71BFBCDF804A0D8F8F6
:107B700008305B49009120F07F49BA1C3A3BD2B2F1
:107B80004B440121204611F093FA012800F0818036
:107B90009AF82430DB0767D4304615F07BFB514B55
:107BA000A5FB035A044648A3D3E9002328465146BF
:107BB000FEF7F6FAD8F808304B4A0792A3F13A08D4
:107BC0004A4B069620F07F47A7FB0331E81A484B43
:107BD00005934FF4F573089333694FF0000BCDE92B
:107BE00003B34FF0070303FB07116AEB01014FF4E6
:107BF0007A720023FEF7D4FA0534E4B2CDE90170BD
:107C0000CDF80090434622460121584611F062F912
:107C100010F0FD0F0DD0374A3749384840F2EB13CA
:107C20002BF0CAFC8BF31188BFF36F8F0323184628
:107C300002DF0122022110460FF0B2FD15B0BDE8AF
:107C4000F08FC4F82B0098800DE72A4A2C492B4866
:107C5000FD232BF0B1FC002383F31188BFF36F8F5A
:107C60000323184602DFEDE60023012200931846A5
:107C7000114611F0DBF98FE795F8273043F0400308
:107C800085F82730281D1BF0E3FE4FF001092885F9
:107C900020E712F0BBFA82453FF47AAF154A194942
:107CA000164840F292232BF087FC84F31188BFF32F
:107CB0006F8F0323184602DF6AE70022C4F82520ED
:107CC000A4F82920DAE600BF8D49FD1A070000005C
:107CD00083DE1B437FC3C901404B4C008C49FD1A16
:107CE0006934040000CA9A3B353404008D49FD1AFA
:107CF000A934040088F8050044F30500ACEC050045
:107D0000C8EF0500E4F805002DE9F04F8DB09B4663
:107D1000BDF860300693CDE90401BDF868309DF8E8
:107D20005C90BDF864A003930020164615F094F80B
:107D3000002800F06C8109F001070446384611F074
:107D4000A3FA0290002F71D1169B02995A46384629
:107D500015F06EFD002840F06B81236A089304F152
:107D60001C020792002B68D0D4F82080D8F800506D
:107D70000BF0010A98F86600C0F3C00100F007009C
:107D80001DF0B0FCB8F85E30B8F85C201A44B8F8C2
:107D90000E3000F23F1003441344CF48CF4A07216E
:107DA000E3FB00211046CAA3D3E90023FEF7F8F94C
:107DB00020F07F40286130461CF022FB94F83330DD
:107DC0006FF3410384F83330FF2384F83430002EFE
:107DD00000F02181A9F10203012B40F22D8194F8DA
:107DE0004810079869F3420184F8481094F833105A
:107DF0006AF30001DDE9042384F833101699096859
:107E0000616216998988218503992186009600214F
:107E1000FFF736F860641DF04DFE002840F0178132
:107E20002046FFF759F80DB0BDE8F08F06210FF09E
:107E30005BFC002888D11220F5E712F0FBF80990CE
:107E4000002800F07A8115F019FA0546002800F0A4
:107E5000718120300FF006FE05F11C08002840F06B
:107E60002381032105F124001DF0EEFA069BD5F8CD
:107E700094006B864FF6FF73A5F834A02B8600287C
:107E800000F0218105F1880205F184010FF038FC32
:107E9000B5F8823023F4EF6323F0070343F48C73C7
:107EA00043F00103A5F8823095F89A304FF0000AAC
:107EB00023F0070385F89A300121C5F894A0A5F8AE
:107EC00098A0284616F008F9A5F836A0C5F83AA0FB
:107ED00005F13E001BF066FD95F8433060F30503A5
:107EE000012185F843300DF12F001DF0ADFA039B01
:107EF0009DF82F20A5F89C31794B85F845A0A3FB70
:107F00000213DB0803EB4303A2EB830295F8433033
:107F1000A98EA5F89EA103F03F0385F8433095F89C
:107F20004830A5F894A1053223F0070385F84420D2
:107F3000069A85F8483040F2E24A6A4B0AFB02FA98
:107F40004FF4C0225344C5F89821881DB3FBFAF3BF
:107F50009AB28242A5F8962102DD063A521A92B2EE
:107F6000A5F89221284617F06FFF5146284617F0D2
:107F7000E3FF0021099B85F86011C5F8643115F015
:107F80004BFC95F8A43160F3020385F8A43115F099
:107F900049FC95F8A43160F3C50385F8A43195F840
:107FA0009031002161F3410385F8903105F1E00043
:107FB00017F0F2FC95F8AA31169A0BF0010A6AF351
:107FC000410385F8AA314FF09613C5E90A333123EE
:107FD000AB600021169B6960E9601B68C5F8B13190
:107FE00095F8AA319288A5F8B52169F30003029AA1
:107FF00085F8AA311368C5F8AB319388A5F8AF317D
:10800000C4F82080C5E905112970ED61B2E60C20A5
:108010000DB0BDE8F08F1CF04DFE00283FF4DAAE45
:108020001699584632461CF06DFB84F83400D1E6B0
:108030000B200DB0BDE8F08F00201CF005FA94F87D
:10804000333043F00203B94684F83330C7E6256A7B
:10805000AB6F73B1244A2549254840F229432BF0E0
:10806000ABFA002383F31188BFF36F8F0323184605
:1080700002DF05F16C0105F168000FF045FB0646D3
:10808000002839D02F68AE67D7F86451002D42D050
:10809000284611F0D5FF384615F0F6F800230320E6
:1080A00023620DB0BDE8F08F0F4A12491048C1237A
:1080B0002BF082FA089B83F31188BFF36F8F0323A1
:1080C000184602DFCDE605F18C00C5F89400D9E62C
:1080D0008D49FD1A0700000000CA9A3B8C49FD1A21
:1080E000ABAAAAAA7FC3C90114F905005CF1050077
:1080F000ACEC050060ED0500114A1249124840F24F
:108100002B432BF059FA86F31188BFF36F8F0323AB
:10811000184602DFB6E70A4A0A490B4840F23243E2
:108120002BF04AFA85F31188BFF36F8F03231846AB
:1081300002DFADE7099811F083FF072073E600BF67
:1081400014F90500D0F20500ACEC050000000000B9
:108150002DE9F04F04468DB090F81C80238D406AC5
:10816000ADF82C30E307C8F3C0170E461546C8F328
:1081700040180A9000F110810023A383B37C707C27
:1081800013F001031CBFD4F81E30C4F82B3004F1E7
:108190002B0214BF638CC4F82B30FF28938004F1AA
:1081A000250904F11F0200F0EA8004F11E011BF012
:1081B00057FEA37FBDF82C200A98C4F8250002338F
:1081C000A377A9F804203368D3F80090EB8A63867C
:1081D0002B8BA386B9F83030E3861DF0BBFC84F806
:1081E00038002F68384615F055F80021A882E08045
:1081F000384617F0B5FED6F804A02068214611F0E5
:1082000031FFAB8AAAF806301C23DAF800408AF85E
:108210000430B8F1000F40F0CF808AF81C8051463E
:10822000204611F02BFFBB687A6895F86600B5F818
:108230001680F5686A4C934238BF1346C0F3C001FC
:1082400003F1090A00F0070040F2E24303FB08F8DB
:108250001DF048FA002202212D1A01200FF0A0FA89
:10826000484614F0CFFDA5FB04455BA3D3E90023EA
:10827000834629462046FDF793FFCDF80490B36866
:108280005849009120F07F490BF10402A3EB0A0347
:10829000D2B24B440121002010F00AFF10F0FD0F74
:1082A0000ED0514A5149524840F249332BF084F9DB
:1082B000002383F31188BFF36F8F0323184602DF77
:1082C0004FF0000B5B4603220121CDF800B0584669
:1082D00010F0ACFE384614F0DDFFB36806464048A7
:1082E000A3EB0A0AA8FB00013BA3D3E90023FDF797
:1082F00057FF19463F4B08933F4B069340F27933A3
:10830000079709933B698046CDE904B310460023E3
:108310004FF47A72FDF744FF384B0722A9FB033173
:10832000CDE9028002FB0911E01A65EB01014FF46F
:108330007A720023FDF734FF0536F6B2CDE90090DE
:10834000534632460121584610F0E0FD10F0FD0F73
:108350000DD0254A2549264840F27A332BF02CF9D6
:108360008BF31188BFF36F8F0323184602DF0122BE
:10837000022110460DB0BDE8F04F0FF011BA0023F6
:10838000BDF82C100A98C4F82530A9F80430A77756
:10839000C4F81F00918016E7134A194914484FF496
:1083A00031732BF009F9002383F31188BFF36F8F2A
:1083B0000323184602DFDFE695F8273043F0400339
:1083C00085F82730281D1BF043FB4FF00108288556
:1083D00023E700BFAFF300808D49FD1A07000000BE
:1083E00000CA9A3B2536040014F9050044F3050041
:1083F000ACEC0500293604005D3604008D49FD1AF9
:10840000C8EF0500000000000538C3B2052B0CD8EA
:1084100070B580B20D4614F045FF044618B190F9CE
:108420004330002B03DA002070BD0020704790F825
:1084300082000F4EC0F3C00100F007001DF052F99A
:108440000C4A00F2B5500721E0FB0621104606A3B6
:10845000D3E90023FDF7A4FE20F07F4028602046EA
:1084600070BD00BFAFF300808D49FD1A070000000A
:1084700000CA9A3B8C49FD1A2DE9F04F93B0FF27B3
:108480000B930B1D0A930023CDE90E3305461646C8
:108490008DF837709B463C4698469A46994610ABF5
:1084A0000693594B0593594B03930FAB01930EABB6
:1084B00000200093022310930490029033460DF1A4
:1084C0003702294610F038FE022812D0109BB3B9AB
:1084D000FF2C25D03368434522D0002F42D0013FE6
:1084E000FF24FFB28DF83740D9E72946002010F06D
:1084F0006FFE109B022BF8D0109B002BE8D0444A53
:10850000444945484FF4EE732BF056F8002383F3AB
:108510001188BFF36F8F0323184602DFFF2CD9D1D8
:108520009DF83700FF282CD011A9FFF76DFF002818
:10853000B5D0FF2CDDF83880119B0AD04946404663
:10854000099310F05FFE0A9B03EB0A029042099B1D
:1085500019D8C1469DF83740D6F80080DDF83CB008
:108560009A469CE72D492A4A2B484FF4F2732BF088
:1085700023F887F31188BFF36F8F0323184602DFB8
:10858000ADE7FF2C34D026480721AAFB000301FBEE
:108590000A311BA3D3E90023FDF702FE044600B114
:1085A0003E34204AABF57423A3F51073934216D8DA
:1085B0001B480721A9FB000301FB093110A3D3E9E4
:1085C0000023FDF7EDFD184BA3FB0B2304EB9344B5
:1085D0000B9B044400201C6013B0BDE8F08F0BF12E
:1085E000E87B0BF5D43B09F1FF390BF5A57BDFE701
:1085F0006FF0090013B0BDE8F08F00BFAFF300804B
:1086000000CA9A3B000000004539040049390400C3
:1086100060F90500A4F90500ACEC0500ACF9050013
:108620008D49FD1ABFBDF07F83DE1B4300000000B3
:108630002DE9F043C668476873683D491A68D0F869
:108640000090A7F57423A3F510738B4283B0804686
:1086500007D907F1E87707F5D43709F1FF3907F5AE
:10866000A57773681169DD8ACDF8049006F11003CF
:1086700001AA0220FFF700FF00284ED10199A1EBCB
:1086800009031B0237D40846494610F0BBFD0346D8
:1086900028480721A3FB000201FB032122A3D3E901
:1086A0000023FDF77DFD34690444002C346109DBAF
:1086B00040F2E24305FB03F3A3422FD2E41AA342A4
:1086C000FCD33461D8F800301A48A3EB0903A3FBAC
:1086D0000002072101FB032113A3D3E90023FDF7C7
:1086E0005FFD154BA3FB0737A0EB9740204430619B
:1086F00003B0BDE8F083484610F084FD03460D4802
:108700000721A3FB000201FB032107A3D3E90023F8
:10871000FDF746FD3469241AC7E73469002CD1D12E
:1087200003B0BDE8F08300BF00CA9A3B0000000020
:10873000BFBDF07F8D49FD1A83DE1B4300000000A2
:1087400010B5334C3349002304F1FF3C14F83320B7
:10875000072A02EB820E05D811F83E206FF345126E
:1087600001F83E201CF833206FF300020CF8332090
:108770000133082BEAD1284A284C002313700A78C9
:1087800063F300020A7091F8282063F3000281F875
:10879000282091F8502063F3000281F8502091F8CE
:1087A000782063F3000281F8782091F8A02063F329
:1087B000000281F8A02091F8C82063F3000281F83C
:1087C000C82091F8F02063F3000281F8F02091F8BE
:1087D000182163F3000281F81821114A9FED0A7BEA
:1087E0001370104B83ED007B0F4B236028B1BDE865
:1087F00010400E490E4832F0AFBFBDE810400C48A3
:1088000032F0B8BFAFF30080FFFFFFFFFFFFFFFFB5
:10881000BD7D00207C7C0020A29800208C7B002065
:10882000A1980020B8400020A0BB0D003D460400E8
:1088300088400020000000002DE9F04F8FB00DF1BE
:1088400037010446DFF8E0A0DFF8E0800DF13600E4
:1088500011F08AFC9DF836309DF837B00B9310F07C
:10886000CFFCDAF80060A6FB085629A3D3E9002361
:108870000027814631462846FDF792FCCDE907776F
:10888000069420F07F44DAF80400234B0593A0FB04
:1088900008011FA3D3E90023FDF782FC1F4B20F042
:1088A0007F40A4FB0331072202FB0411CDE90370D2
:1088B000E81A66EB01014FF47A720023FDF770FCB1
:1088C0000097CDE901404B460B985A46032110F022
:1088D00001FB10F0FD0404D06FF08B000FB0BDE879
:1088E000F08F0F480F4A002327F006F820B9DAF876
:1088F0000C000FB0BDE8F08F9DF837209DF83600D2
:1089000000942346032110F091FB6FF07300E5E71C
:108910008D49FD1A07000000B94D04008D49FD1A6C
:10892000307E0020447B0B00487E002000CA9A3B2A
:1089300038B50F4D044610F063FCA96810F062FCD6
:10894000696803460B48B3FBF4F4A1FB00011C4427
:1089500005A3D3E90023FDF723FC20F07F408442E8
:1089600094BF0020012038BD8D49FD1A070000008A
:10897000487E002000CA9A3BF0B5C468636883B0A3
:108980000546002B64D11EF055FF08201EF078FF2D
:10899000002108461EF066FF0022252108201EF057
:1089A000A3FF474B019301A81EF08AFF454940F2FF
:1089B0005B601FF041F8237AC3F3420262F30613AF
:1089C000204623721DF0E6FA1CF074F958BB637A56
:1089D0009B071FD127682E6838461CF01FFE0644EF
:1089E0006A6806F1090101201FF080F91FF06EFA94
:1089F000204613F0C1FF811C3246C9B238461CF034
:108A00001BFE054678BB20461CF0A2FD88B900205D
:108A100003B0F0BD01201BF0A7FC4178821C007858
:108A20001FF004F9D6E7607A10F0030018BF0120A8
:108A3000F1E7254A2549264840F229432AF0BCFDA2
:108A400085F31188BFF36F8F0323184602DFDEE73B
:108A500093F82C309A0796D01E4821461EF0A8FEA7
:108A60001EF094FFD3E7184A1B49194840F21143FE
:108A70002AF0A2FD194B0721A5FB030301FB0531D9
:108A80000DA3D3E90023FDF78BFB154902461548DA
:108A90002AF092FD002585F31188BFF36F8F032321
:108AA000184602DF104821461EF082FE1EF06EFFBF
:108AB0006FF08B00ACE700BF00CA9A3B00000000DB
:108AC000D6BE898E5555550080FD050080EE050007
:108AD000ACEC0500C957040084ED05008D49FD1A72
:108AE00030FE050004FE0500695B04000000000084
:108AF0002DE9F041C46894F91630002B8CB0C0F217
:108B00000581636805460E46002B40F0F480A37D86
:108B10006FF30003A3751EF08DFE08201EF0B0FE5B
:108B2000002108461EF09EFE0022252108201EF08E
:108B3000DBFE012011F01EFC0746002800F0CC806F
:108B400007F11C001EF0FAFE8B4B0B930BA81EF0D6
:108B5000B7FE8A4940F25B601EF06EFFA07DC0F355
:108B6000410025301CF07AFD854821461EF020FE8C
:108B7000A37D9B0603D46368002B00F0AA80962097
:108B80001FF0A8F800231A46194618461EF0BAFF2F
:108B90001CF090F8002838D1A37D13F0180F5BD19A
:108BA000D4F800802F6840461CF038FD07446A68FE
:108BB00007F1090100201FF099F81FF087F91FF055
:108BC00011F8204614F02CF9011DC9B240463A466E
:108BD0001CF032FD8046002840F09F8016B9636A81
:108BE000002B52D1636843B1664B01220221002061
:108BF0009D600EF00BFE002837D120461CF0A8FC2B
:108C0000D0B900200CB0BDE8F081A07DC0F3C00059
:108C10001BF0AAFB07460DF12B001BF0B3FE797881
:108C20008046BA1C38781FF001F89DF82B0000220E
:108C300041461FF019FAB3E7534A5449544840F2E9
:108C40000B232AF0B9FC002383F31188BFF36F8F45
:108C50000323184602DFD4E701201BF085FB41788F
:108C6000821C00781EF0E2FF9AE7474A49494848CB
:108C700040F206232AF0A0FC002383F31188BFF3FF
:108C80006F8F0323184602DFB7E7434A0792434A30
:108C9000059240F2F31200930892CDE90366CDE904
:108CA000016606943B460322314610F013F910F09A
:108CB000FD0F97D0344A3A4935484FF4FA732AF0F9
:108CC0007BFC86F31188BFF36F8F0323184602DF06
:108CD00088E71EF077FF5BE72B4A32492C484FF4B8
:108CE000C5732AF069FC87F31188BFF36F8F0323E4
:108CF000184602DF24E7636893F82C30D90705D4BF
:108D0000636893F82C309A077FF501AF2648214617
:108D10001EF04EFD1EF03AFE73E71B4A23491C4825
:108D200040F2E5132AF048FC214B0721A8FB03037E
:108D300001FB08310EA3D3E90023FDF731FA1D49E9
:108D400002461D482AF038FC002585F31188BFF340
:108D50006F8F0323184602DF184821461EF028FDB6
:108D60001EF014FE6FF08B004CE700BFAFF30080E5
:108D700000CA9A3B00000000D6BE898E55555500AA
:108D8000618E0200440900203CFE050080EE0500D3
:108D9000ACEC050098ED050005670400AD67040024
:108DA000A8F00500CCFD0500C957040084ED0500BE
:108DB0008D49FD1A88FE050004FE0500DD650400EE
:108DC00038B504461DF0B8FBA37DA27DC3F3410373
:108DD000013303F00303032B08BF002363F34202B4
:108DE00014BF03F125002520A2751CF037FC636831
:108DF0000BB123694BB910F003FAC11C00201EF01F
:108E0000E9FFBDE838401FF061B81FF011F80546D2
:108E100010F0F6F9C11C00201EF0DCFF1FF056F820
:108E20001FF006F8294610F0EDF90B4A034607211A
:108E3000A0FB020201FB032105A3D3E90023FDF7F8
:108E4000AFF923691B1A236138BD00BFAFF300805F
:108E500000CA9A3B000000008D49FD1A0000000086
:108E60002DE9F0478AB004461EF0D0FDC0B250B9DB
:108E70001CF04EFCC64821461EF09AFC0AB0BDE824
:108E8000F0471EF083BD1EF0E3FD05461EF002FF15
:108E900007461EF009FF81461FF040F906461FF005
:108EA0001FF982461EF0B8FEEDB280461EF098FE15
:108EB0001CF02EFC002DDDD0012011F05BFA0546E0
:108EC000002800F0528117F0FF07F6B240F0E8806A
:108ED000002E40F0DF804FF0FF093A464B46314606
:108EE00020461DF05FFD0028C4D02A7F6168002362
:108EF0008DF823305FFA88F702F00F03002900F0A5
:108F0000F180616891F82C10880700F1EB80072B45
:108F1000B0D0A17D090740F14781002B40F0C98006
:108F20006B7F063B1F2BA5D8042011F023FA0028E5
:108F3000A0D01EF0D3FF636A074643B9238C40F2EA
:108F4000712202FB03F3B0FBF3F203FB1207236869
:108F50001A69904B0721A2FB030301FB02318AA38C
:108F6000D3E90023FDF71CF96FF4427C00EB0C03FE
:108F70001F3B62EB0202BB4272F10002FFF47AAFC8
:108F80001EF020FE484663681BF0E2FCE37D990773
:108F9000804640F1E481002800F0E181824601270B
:108FA0001EF064FDCDE9027A09AB049305F11E03BE
:108FB00001932B7FC3F380130146074600930022E1
:108FC000012320461DF008FD38461EF0BDFC1EF0B2
:108FD00009FD002840F0C9816F4821461EF0E8FBDA
:108FE000626892F82C3043F0010382F82C30A37DA4
:108FF00043F08003A37511F0D7F9172202714FF6E1
:10900000FF72C28095F81CC082463B46CCF3401CE0
:1090100000F11C0207F1200E1D6858689968DF688E
:10902000D7601033734515605060916002F11002F3
:10903000F2D11B6813609AF81C30CAF808406CF330
:1090400045138AF81C301EF0F3FE002ECAF81000FB
:10905000099BCAF8143008BF4FF0FF098AF819902D
:10906000E37D13F0020303D0B8F1000318BF01231E
:109070009AF81A2063F300028AF81A2011F094F982
:10908000CAF80C00DAF8000051460AB0BDE8F04713
:1090900011F0B4B95FFA8AF01BF0F0FC81461CE7CE
:1090A000A07D5FFA89F1C0F3C0001BF075FC81461A
:1090B00013E7012B40F088806A7F0C2A7FF4DAAE38
:1090C0002A7FCDF80090194600230193D20905F1BB
:1090D000240320461DF0B4FB00287FF425AF2B7F2E
:1090E00003F00F03002B6FD16B7F052B7FF6C2AE11
:1090F000252B3FF6BFAEA27D02F02102202A09D126
:109100006268002A00F0C080052B7FF6B3AE252BE5
:109110003FF6B0AE63682BB12B7F03F00F03072B34
:109120007FF4A8AE03209DF8238011F023F90546B3
:1091300000283FF49FAE11F037F94FF6FF73EB8034
:1091400005232B71002F3BD17F20AB7E2876002E8C
:1091500008BF4FF0FF0968F34103286885F81990AC
:10916000AB76294611F04AF984E60C4A0C490D48C1
:1091700040F2C7232AF020FA85F31188BFF36F8FDE
:109180000323184602DF9EE600CA9A3B0000000057
:10919000F56504008D49FD1AF56704003CFE0500E5
:1091A000CCFD0500ACEC0500B9F1FF0F8DF8249063
:1091B000C2F380184BD0227E91453FF4AEAE91E7CA
:1091C0001EF01AFDC0B2C0E7062B8DD04521D94054
:1091D00011F0010139D1012B10D16B7F0C2B7FF4E1
:1091E00049AE2A7FCDF800900DF123030193D209F7
:1091F00005F1240320461DF023FB08BB2B7F03F061
:109200000F03042B7FF436AE6B7F063B1F2B3FF61C
:1092100031AEA37DDB077FF52DAE1EF027FC2B7F43
:109220000278C3F38013B3EBD21F7FF423AE083070
:10923000062205F11E0132F09AFE00287FF41AAED4
:109240006B7F002B7FF466AF14E66B7F5CE705F164
:109250001E0A09AA514640461BF0CEFC00283FF4E6
:109260003EAFE37D03F0010343457FF438AF514641
:10927000062204F1080032F07AFE00287FF42FAFB6
:109280002B7F03F00F0348E6962007921EF022FD85
:10929000079A10461EF0EEFB032011F06BF8804693
:1092A00000283FF4E7AD11F07FF84FF6FF73A8F800
:1092B0000630052388F80430002F66D17F23002E66
:1092C00088F8183014BF4B46FF2388F8193098F8F7
:1092D0001A30D8F800006FF3410388F81A3041467D
:1092E00011F08CF81EF0C2FB06460322337862F3BD
:1092F000030333702B7F3278C3F3801363F3C712F9
:109300000C233270484673701BF022FBE27D9207FB
:109310003FD500283DD03178324641F0400102F877
:10932000021B0168C6F8021083889380D5F81E30AE
:10933000B3606B8CB38130461EF006FB1EF052FB0F
:10934000002837D11EF0C2FDA37D224843F001035F
:109350002146A3750AB0BDE8F0471EF029BAA77DE3
:1093600004F1190AC7F380171AE61B4A1B491C4867
:1093700040F2AF432AF020F9002383F31188BFF3B2
:109380006F8F0323184602DF26E61EF035FCC3B2BA
:1093900095E7A37D3278C3F3801363F386123346D7
:1093A00003F8022BD4F81920C6F80220B4F81D20C7
:1093B0009A80BBE7084A0949094840F233532AF02A
:1093C000FBF8002383F31188BFF36F8F0323184644
:1093D00002DFB7E7096604003CFE0500D4FD050086
:1093E000ACEC0500000000002DE9F041C468A28A41
:1093F0004FF6FF739A4282B000F0DF8005461DF001
:10940000FFFB2B89628B208CA3831A4492B21044F9
:1094100094F82730E28380B2411C21845E064FF02D
:109420000001618304F1220100F1A18003F03F00FB
:109430000B4694F82810009004F129001AF0C0FAA5
:109440000646D4E90C31A28B02FB0333A26B134412
:10945000E26B8B4294BFD21852188A4228BF0A4648
:10946000E263616C226C94F867301144616494F893
:109470007E2094F82C10C3F3020363F3061112F05C
:1094800004024FF0000384F82C10A363236478D007
:109490001EF0D0F908201EF0F3F9201D1EF010FA7E
:1094A0002389A17A40F25B6043EA01411EF0C4FACD
:1094B00030461CF0D3F8214659481EF079F9A089AE
:1094C0001EF008FC94F8662094F86700C2F3C0030D
:1094D000002102F0070200F007001EF013FB2046F7
:1094E0001DF04EFC27682E6838461CF097F806449D
:1094F0006A6806F1090100201EF0F8FB80461EF0A4
:10950000B9FC00201EF0D0FCE36B94F8670003F177
:109510002F02636C00F00700012103EB42051EF0EF
:1095200021FA4544054494F8670000F0070002283A
:1095300025D004280CBF4FF4BC73282301211D44FF
:109540001EF012FA28441EF087FCA18A053132462B
:10955000C9B238461CF070F80546002834D12046C0
:109560001BF0F6FFD0B9002002B0BDE8F0810A463A
:1095700003F03F03218D1AF06FFA064661E71823C6
:10958000DCE7D4E91A010EF0D3F8002880D194F872
:109590007E3043F0040384F87E3079E7214A224983
:1095A00022484FF4B0732AF007F885F31188BFF30F
:1095B0006F8F0323184602DFD5E71D4821461EF0B2
:1095C000F7F81EF0E3F9CEE7164A1A4917484FF4A8
:1095D000AB7329F0F1FF184B0721A5FB030301FB37
:1095E00005310DA3D3E90023FCF7DAFD1349024648
:1095F000134829F0E1FF002585F31188BFF36F8F31
:109600000323184602DF0F4821461EF0D1F81EF052
:10961000BDF96FF08B00A7E700CA9A3B000000007D
:10962000F96F04001CFF050080EE0500ACEC05009E
:10963000C957040084ED05008D49FD1A70FF05002F
:1096400004FE0500A5570400F0B5C468A28A4FF6D1
:10965000FF739A4285B000F08F8005461DF0D0FA66
:109660002B89628B208CA3831A4492B2104494F805
:109670002730E28380B2411C21845E064FF0000156
:10968000618304F1220160D403F03F000B4694F89B
:109690002810009004F129001AF092F9064620469D
:1096A00003A91DF04BFC039B94F87E101A7861F31C
:1096B000C3021A70039A94F87E301178C3F3400302
:1096C00063F3820111701EF0B5F808201EF0D8F87F
:1096D000201D1EF0F5F82389A17A40F25B6043EA71
:1096E00001411EF0A9F930461BF0B8FF039920464E
:1096F0001DF0F8FB21463A481EF05AF8E0891EF0AA
:10970000E9FA94F8670000F007001EF0B3F9276843
:109710002E6838461BF082FF06446A6806F109018C
:1097200001201EF0E3FA1EF0D1FBA18A053132467A
:10973000C9B238461BF080FF054620BB20461BF00F
:1097400007FF50B9002005B0F0BD0A4603F03F0303
:10975000218D1AF081F90646A1E7224A22492348C1
:109760004FF4827329F028FF85F31188BFF36F8FC0
:109770000323184602DFE5E71D4821461EF018F8CE
:109780001EF004F9DEE7174A1A491848FA2329F0AF
:1097900013FF194B0721A5FB030301FB05310EA3A2
:1097A000D3E90023FCF7FCFC14490246144829F0D5
:1097B00003FF002585F31188BFF36F8F032318463D
:1097C00002DF104821461DF0F3FF1EF0DFF86FF0B6
:1097D0008B00B8E7AFF3008000CA9A3B000000009E
:1097E000196E04007CFF050080EE0500ACEC05005E
:1097F000C957040084ED05008D49FD1ACCFF050012
:1098000004FE0500A5570400F8B510EE904A34F0A8
:1098100000472DED048B10EE103AB0EE609A0DD19A
:1098200083F480035B0013F5000F40F2098230EEF1
:10983000098AB0EE480ABDEC048BF8BD23F0004065
:10984000B0F1FF4F02D8B7F1FF4F08D9B3F17E5FF7
:10985000EDD184F48004640014F5000FE5E7002BDB
:1098600001462DDAB7F1974F0CD3B7F1FF4F2AD04D
:109870000225B4F17C5F41D1002BC0F28F80B1EEA4
:10988000C08AD6E7B7F17E5F31D3FA15C2F19602EE
:1098900047FA02F505FA02F2BA423DD1B7F17E5F0E
:1098A0004AD1002C80F2D281B5EE400AF1EE10FAD6
:1098B00050D1D80FBDEC048BBDE8F84028F0EABBCE
:1098C000B7F1FF4F3DD1B0F17E5F00F0B98108D90B
:1098D000DFED977A002CB4BFB0EE678AB0EE498A0C
:1098E000A7E7002C80F2AF81B1EE498AA1E7B4F17D
:1098F000804F34D0B4F17C5F5CD0002523F040422F
:10990000B2F17E5FB0EEC08A3FD1002CBCBFB7EE93
:10991000007A87EE088A29E0B7F17E5FC1D0002582
:10992000B4F1804FEAD1B0F1BF4F1AD2B0F1D05F9D
:1099300029D920EE008A7CE705F00105C5F1020572
:10994000EEE7B7F17E5FACD0B4F1804F4FF0000589
:10995000E9D08EE7B7EE007A87EE008A69E7002546
:10996000E1E7B0F1FF4FB0EEC08A35D1002BBFF672
:1099700060AFA0F17E50284316D1BDEC048BBDE84A
:10998000F84028F097BBB0EEC08A28BB002C1EDA46
:10999000002B8FDA6B1E584258418BE7B0F1FF4F16
:1099A000B0EEC08A40F05581012D7FF442AFB1EE98
:1099B000488A3EE7B0F1FF4FB0EEC08A3FF439AFBE
:1099C000B0F17E5FD9D000283FF433AFD5E7012D49
:1099D00008BFB0EE408A2CE7DE0F013E55EA0602D2
:1099E000CBD0B7F19A4F40F24081524B984208D801
:1099F000002C0BDA0020BDEC048BBDE8F84028F009
:109A000039BB4D4B984208D9002CF3DC0020BDEC4B
:109A1000048BBDE8F84028F01DBBB7EE007A38EEA5
:109A2000478ADFED467ADFED469A3FA1D1E9000192
:109A300068EE278AFCF764FB07EE900AB5EE007A21
:109A400048EE477AB6EE007A07EEC87A68EE087AF2
:109A5000DFED3C6A27EE277AF0EE687A47EE667A09
:109A600068EE299A39EEA77A17EE103A23F47F634D
:109A700023F00F0307EE103A77EE699A77EEE97A52
:109A8000013D24F47F643543B7EE007A24F00F04DF
:109A9000BFEE008A18BFB0EE478A07EE104A67EEA5
:109AA000890A39EE477A07EE903A47EE270A07EE21
:109AB000104A67EE877A30EEA77A17EE101A00295F
:109AC00021F000431ADDB3F1864F09D9B5EEC08A03
:109AD000F1EE10FA4CBF012000208CE70120E5E0F8
:109AE00036D1DFED196A37EE677A70EEA66AF4EECA
:109AF000C76AF1EE10FAE9DC86232DE0134A93429F
:109B000007D9B5EEC08AF1EE10FA4CBF0120002053
:109B10007DE71DD137EE677AB4EEE07AF1EE10FA08
:109B2000EADBEEE7AFF30080E13D55555555D53FF3
:109B300000000000F3FF7F3F0700803F70A5EC3678
:109B400000AAB83F3BAAB83F3CAA383300001643EE
:109B5000B3F17C5F6FD9DB157E3B4FF400001841F9
:109B60000844C0F3C753A04A7F3B1A41024007EEA6
:109B7000102AC0F3160040F40000C3F11703184187
:109B8000002977EEC77AB8BF404237EEA07ADFED02
:109B9000976ADFED975A9FED976A17EE103A23F414
:109BA0007F6323F00F0307EE103A77EE677A67EED4
:109BB000266A70EEE70ADFED907A67EE277A9FED6E
:109BC0008F7A40EE877AB7EE000A36EEA77A77EE04
:109BD000666A77EEE67A67EE076A47EE277A16EE50
:109BE000A56ADFED875A46EE265A9FED866A15EE86
:109BF000A66ADFED855A46EE265AB0EE476A05EEB4
:109C0000E66AF0EE006A67EE065A36EE666AC5EE60
:109C1000866A76EEE77A77EEC77A30EE670A10EE5C
:109C2000103A03EBC053B3F5000F06DA28F0CCF975
:109C300020EE088AFDE50020A7E700EE103AF7E7DE
:109C4000B7EE008AF5E59FED718AF2E5B0EE408A45
:109C5000EFE5B0F17E5F3FF48CAE00283FF4B7AE85
:109C6000002D3FF48AAE0225002613F0FF4F08BFF7
:109C70009FED677A674802BF68EE077A6FF01703B7
:109C800017EE901A4FEAE15218BF00237F3A1A44A8
:109C9000C1F31603834243F07E5106DD5E488342E2
:109CA0007FF71CAF0132A1F5000100205B4B03EBF5
:109CB0008003D3ED005A5A4B06EE101A75EE867AE1
:109CC000F7EE006AC6EEA74A491041F0005101F5CF
:109CD000802101EB405136EE657A07EE901A27EEAF
:109CE000245A15EE107A1F4006EE907A06EEE77AB7
:109CF00077EEE57ADFED4B5A36EE676A65EE057A68
:109D000006EE667A9FED486A47EE865A9FED476AEF
:109D100005EEA76ADFED465A46EE275A9FED456AE3
:109D200005EEA76ADFED445A46EE275A27EE247A5D
:109D300036EE856A67EEA77A26EE076A05EEA76A11
:109D400066EEA64AF0EE085A74EEA57A77EE867AA9
:109D500017EE901A194007EE901A77EEE55A27EEA3
:109D6000277A75EEE45A66EEA76A36EE656A06EE65
:109D7000057A9FED326A76EE877A17EE901A1940CF
:109D800007EE901A77EEE66A27EE866A37EE667A75
:109D9000DFED2B6A2B4967EEA67ADFED2B6A47EEE3
:109DA000267A01EB800191ED007A77EE877A07EE53
:109DB000102A264A02EB8002D2ED005A76EE276A7C
:109DC000B8EEC77A76EEA56A76EE876A16EE902A26
:109DD000134006EE903A36EEC77A37EE657A37EEE4
:109DE000467A77EEC77A4BE6000080FF0072313F7B
:109DF0004CBB31330EEADD358CBEBF351872313FB6
:109E000055B38A38610B363BABAA2A3E00000000EE
:109E10000000804B71C41C00D6B35D00880D0600A5
:109E200000F0FFFF55326C3E42F1533E05A38B3EDE
:109E3000ABAAAA3EB76DDB3E9A99193F0038763F30
:109E4000A0C39D36780D06004F38763F800D060082
:109E500001482EF0A6BF00BF14C80500012B07B5AE
:109E60000FD112780848012A14BF002257228DF81A
:109E7000072000210DF107022EF006FF03B05DF868
:109E800004FB6FF08500F9E714C80500012B13B53A
:109E9000144611D10A480DF1070200212EF019FFD6
:109EA000002807DB9DF80730A3F1570253425341C6
:109EB0002370002002B010BD6FF08500FAE700BFEC
:109EC00014C80500014825F0F1BE00BFD0020020F3
:109ED000014825F0EBBE00BFC002002007B531F0FD
:109EE000C8FD4FF47A72A0FB020302FB0131C00BE4
:109EF000074A40EA4140106000234FF40042054801
:109F0000CDE9002326F08CFD002003B05DF804FBB2
:109F100068460020E00B0020014B187800F072BA70
:109F200054970020044B1A78824202D01870FFF731
:109F3000F3BF0020704700BF5497002008B531F0F0
:109F400098FD4FF47A72A0FB020302FB0131084A2C
:109F5000C30B126843EA41439B1A47F230529342C3
:109F600004DDBDE808400120FFF7DCBF08BD00BFED
:109F70006846002008B531F07CFD4FF47A72A0FBF2
:109F8000020302FB0131C00B044A40EA4140106069
:109F9000BDE808400020FFF7C5BF00BF68460020AD
:109FA000014B1878704700BF54970020F8B504465D
:109FB00010B900252846F8BD0378002BF9D00F4EC4
:109FC0000F4FBE420FD30D4EBE42F2D2306831F079
:109FD000F1F830B1356821462868FCF7FBF8002815
:109FE000E8D00436F0E7306831F0E4F818B13568AD
:109FF0002B68A342DED00436E3E700BF802C0600C6
:10A00000C42C060070B5194C194D8CB000220023E9
:10A0100003A9204625F0DAFA08B10CB070BD2B6810
:10A02000059E5868DDE9031228F069F90028EDDB88
:10A03000FF238DF81830B6FA86F35B0907908DF888
:10A04000203031F016FD4FF47A72A0FB020302FBC0
:10A050000131C00B40EA4140C90B8DE8030006AB5B
:10A06000CDE90A010FCB00F0E7F9CFE7480D00205A
:10A07000204700201FB50A4C2468A46884420DD1F3
:10A0800083F00103CDE90112039306480022002367
:10A0900001A925F03DFA044825F008FE04B010BDE2
:10A0A00020470020480D0020104700201FB5002346
:10A0B000CDE90233044B8DF80C0001A8019328F080
:10A0C00045F905B05DF804FBC8D005000268034BF4
:10A0D0009A420CBF08300020704700BFC8D005006E
:10A0E000014B0360292070476C460020044B1A681E
:10A0F000044B9A4214BF6FF012000020704700BF5B
:10A1000020470020B0D0050038B5044628B3144DD0
:10A110002B6883421FD02BB1986818B183685B68A5
:10A1200003B198470F49104B8C4214BFED21002119
:10A130002922002028F0FDF800280DDBA0682C6003
:10A1400048B1836809491B6898472B6898688368F9
:10A150009B6803B19847002038BD6FF01200FBE701
:10A1600020470020B0D005006C46002075A00200FA
:10A1700038B5054648B90648FFF7C6FF041E02DB9E
:10A180002846FFF793FF204638BD6FF01504FAE725
:10A19000B0D00500F7B50C4615460D4901AA1E467C
:10A1A00029F0EBFF68B1019B6BB9012C0DD1094F70
:10A1B000224639463046A847002802DD3878FFF7A6
:10A1C000D7FF03B0F0BD0020FBE76FF01500F8E704
:10A1D000E30E0600560B00200148FFF795BF00BFB5
:10A1E000B0D0050008B50749074831F059FA074AC9
:10A1F000002342F8043B0133292BFAD1BDE8084083
:10A20000FFF7EABF05A00200104700206C460020BF
:10A21000F8B50F4D0F4E761B07460C4605EBC105F2
:10A22000C6F3C706A64201DC00200CE02A683B68A2
:10A230009A4209D13C716B6838461B68984718B13F
:10A24000431E012BF0D9F8BD01340835EAE700BF01
:10A25000781B0600F01B06000D4B0E4AD21A70B494
:10A26000C2F3C7020024944203DB6FF0150070BCF8
:10A2700070471E680568AE4206D15D688D4203D105
:10A28000E1B270BCFFF7C4BF01340833EBE700BF95
:10A29000781B0600F01B060000B58BB0064B074A82
:10A2A0002821684626F044FC05490122684604F04E
:10A2B000EDFB0BB05DF804FB2B0F0600350F06001D
:10A2C000559700202DE9F8434768044600254FF0D4
:10A2D00001087B68AB420DD82149224831F03CFA95
:10A2E000A3681B680BB120469847398939BB002009
:10A2F000BDE8F8833A6802EBC50352F835001979D6
:10A30000DB88D0F810C0D0F80890DCF80060DA07DD
:10A3100054BF43F4B01383F4D01323F4801208FA2B
:10A3200001FEDB074CBF46EA0E0626EA0E06CCF815
:10A330000060D9F80030984770B90135C9E740F29C
:10A34000E7304FF47A72002300EBC1300021FBF7B5
:10A3500027FF31F015FBCAE76FF00400C8E700BF24
:10A3600099A202009010002008B5074B5A784AB90C
:10A3700001221A7005480022002325F005FD04483B
:10A3800027F0FFFF002008BD559700209010002007
:10A39000ECC7050008B54FF4F0120023024825F081
:10A3A00027FD00EAE07008BD90100020F7B50C46CC
:10A3B0001646114901AA1F4629F0DFFEB0B1019BE4
:10A3C000A3B9012C15D10D4D224629463846B04778
:10A3D000002806DB2B780A486C7023B127F0D1FFE8
:10A3E000002003B0F0BD27F0E8FFF9E76FF00100AF
:10A3F000F7E76FF01500F4E72B0F060055970020E4
:10A40000ECC705001FB50023CDE90233044B8DF8DE
:10A410000C0001A8019327F099FF05B05DF804FB3B
:10A42000ECD005000268034B9A420CBF08300020B4
:10A43000704700BFECD0050084B030B589B00CACDB
:10A4400084E80F00002301930CAD084B00930FCD5F
:10A4500002AC0FC495E8030084E80300684627F0C7
:10A4600075FF09B0BDE8304004B07047F0D005007A
:10A470000268034B9A420CBF08300020704700BFAF
:10A48000F0D0050084B030B58BB00EAC84E80F007E
:10A49000002301930EAD084B00930FCD02AC0FC407
:10A4A00095E80F0084E80F00684627F04FFF0BB0D7
:10A4B000BDE8304004B07047F4D005001FB500235C
:10A4C000CDE90233044B8DF80C0001A8019327F06D
:10A4D0003DFF05B05DF804FBF8D0050082B038B54B
:10A4E00004A981E80C000546114824F063FE0446E7
:10A4F000A0B16B68012B0CD0022B05D0A3B9BDE82D
:10A50000384002B027F09FBF27F0A4FF0028204664
:10A51000F5DCBDE8384002B027F08EBF6FF00400D4
:10A52000BDE8384002B070476FF08500F8E700BF23
:10A530002B0F060082B010B502A981E80C0004467A
:10A540000B4824F037FE78B16368022B04D000205A
:10A55000BDE8104002B0704727F07CFF0028CCBF58
:10A56000002001206060F2E76FF00400F0E700BF18
:10A570002B0F060002460249024827F0C3BF00BF66
:10A580006C4700205CD1050002460249024827F0D2
:10A59000B9BF00BF544700204CD105000246024914
:10A5A000024827F0AFBF00BF3C4700203CD1050068
:10A5B00002460249024827F0A5BF00BF24470020F9
:10A5C0002CD105000D4A52F82030013342F82030DA
:10A5D0000B4A0123117883400B430A490978DBB207
:10A5E000137023EA01030849084A097850780B439D
:10A5F000181A537018BF0120704700BF98470020F9
:10A600005A97002058970020599700206E0B002081
:10A6100010B5114A52F82030002B19DD013B42F8E9
:10A6200020300E4A2BB913780121814023EA01031F
:10A6300013700B480B4B047810780B4A597812783A
:10A6400020EA040010435870401A18BF012010BDC2
:10A650006FF01500FBE700BF984700205A970020D5
:10A66000589700206E0B002059970020044A0123C0
:10A6700012788340D8B213401B1A58425841704791
:10A680005A97002010B5084B084A1870084B5178AB
:10A690001C78084B1B7823EA040318435070401AB7
:10A6A00018BF012010BD00BF599700206E0B00207D
:10A6B000589700205A970020074B00221A70074B2A
:10A6C000074A1978074B50781B7823EA0103181AB8
:10A6D000537018BF012070475997002058970020E9
:10A6E0006E0B00205A970020A0F1E003072B03D83F
:10A6F0002030C0B2FFF766BF064B062213F8011FD9
:10A7000019B1013AFAD10020704718700028F8D02A
:10A71000F9E700BF700B0020A0F1E003072B10B495
:10A7200005D820305DF8044BC0B2FFF771BF00239D
:10A73000064A194612F8014F0133A04208BF1170B2
:10A74000062BF7D100205DF8044B7047700B0020FA
:10A75000A0F1E003072B03D82030C0B2FFF786BF7B
:10A76000064A002312F8011F884204D00133062B49
:10A77000F8D1002070470120704700BF700B002007
:10A78000024B00221A605A60704700BF6F0B002016
:10A79000B0F5805F10B510D20949002301EB4302E8
:10A7A000B2F8014024B10133062BF7D1002010BDCF
:10A7B000A2F801000028F6D0F8E76FF08500F6E770
:10A7C000610B002030B50023074C194604EB43020F
:10A7D0000133B2F80150854204BF51709170062BCD
:10A7E000F4D1002030BD00BF610B0020024B0022DD
:10A7F0001A605A609A607047620B0020074A002373
:10A8000002EB4301B1F80110814204D00133062B61
:10A81000F6D1002070470120704700BF610B002077
:10A82000042810D8094A52F82030013342F8203069
:10A83000074A0123117883400B43DBB21370054AAA
:10A840000020537070476FF0150070478447002058
:10A8500057970020570B0020042814D80B4A52F8B1
:10A860002030002B0FDD013B42F82030084A2BB985
:10A8700013780121814023EA01031370054B1278FC
:10A880005A70002070476FF0150070478447002011
:10A8900057970020570B0020014B58809980704734
:10A8A000570B0020014B1881D9807047570B0020AF
:10A8B000024B00221A605A601A727047580B00202F
:10A8C000004870476E0B002000487047610B002065
:10A8D00000487047570B00202DE9F0410B4E3378AC
:10A8E00083B10B4CDFF82C80002542F20F77204615
:10A8F0004146013530F030FF0A2D44F8207C04F148
:10A900005804F4D100203070BDE8F081770B0020AE
:10A9100020170020E128050030B5C269037ED17DF3
:10A9200091B0044609B1032B39D0023B012B517D74
:10A9300007D8002933D1204611B0BDE8304027F0B8
:10A94000A6BF21B1937D13B9204627F042FF0AAD7F
:10A9500018220021284631F080F923798DF838300B
:10A960000023CDE907330993E36922689B680793C5
:10A97000D4E90401E36808930A4B0B92CDE90C017A
:10A98000C3E902011A600123049310AB13E90F001D
:10A990008DE80F0007A895E80C0027F02EFC11B0F9
:10A9A00030BD00BF000000200B4A30B50023044634
:10A9B000282000FB03F18D18515C41B90FCC0FC565
:10A9C0000FCC0FC594E8030085E8030030BD0133C8
:10A9D000282BEED1FAE700BFC01000202DE9F84384
:10A9E000027E0346002A6ED13B4D2A6882426AD11C
:10A9F000D269547D24B119B9BDE8F84327F047BFA7
:10AA0000107D032828D8DFE800F0020E1F6001390E
:10AA1000042921D8DFE801F01E0320051E000221D1
:10AA200019E0032117E00139042915D801A050F8D5
:10AA300021F000BF55AA020059AA02001FAA020075
:10AA400023AA020055AA02000429EAD001F0FB0162
:10AA5000012901D101211976197EA1B3D0690028FD
:10AA60000DDD5C6D611C0AD01C32002152F8046FB0
:10AA7000A64204D001318842F8D101221A76002280
:10AA800018462A60FFF748FF2C68E4B9134EDFF838
:10AA90005080A14616F8087CAFB12B6806F8089CD8
:10AAA00023B14FF4A470002130F06AFF012F01D0D0
:10AAB000022F03D141463046FFF7CEFB0134282C4C
:10AAC00006F12806E6D1BDE8F8830229A7D0BFD950
:10AAD00004390129BED9BFE7B8470020C8100020BB
:10AAE00000D2050082B02DE9F0412F4E06A981E881
:10AAF0000C000024582202FB04F0851931588B42C7
:10AB00004AD12030304430F035FEEB691968D5E980
:10AB100004238A1843EBE17308998A42099A934106
:10AB2000804603DA04212846FFF758FF582707FB21
:10AB3000046701212846FFF751FFFB69DB7D53B114
:10AB40003B7E032B07D1284627F06BFE01232846C6
:10AB50003B76FFF7E1FE284627F063FE582303FB10
:10AB60000463DB695A7D22B19B7D13B1284627F02F
:10AB700030FE18F1770F4FF058031DBF5C4342F2CF
:10AB80000F72331903FB046317BF325101220022F5
:10AB90001A7683F8502002E001340A2CABD1BDE8CC
:10ABA000F041002002B070470017002082B02DE96C
:10ABB000F047044608A9006881E80C0027F0C7FAAE
:10ABC0003B4B1D687DB9D4E901C23A4F4FF0580E96
:10ABD00042F20F780EFB05F6F419B959414507D03A
:10ABE00001350A2DF6D1BDE8F047002002B07047CC
:10ABF000D0F804809DF83010DDF82490DFF8B8E03C
:10AC00002171C4E902C2DDE90AC0C4E904C000211F
:10AC10004FF0FF3247F8069021766265C4F81C8039
:10AC2000DEE902211C60D8F8103013EB020A41EB78
:10AC3000E373D44570EB03030CDBDEF80030994579
:10AC40000CD1D8F80C309A1841EBE371944570EBB5
:10AC5000010103DA05212046FFF7C0FE204600214E
:10AC6000FFF7BCFE582303FB0575D8F8004029699F
:10AC70000C4430F0FEFE4FF47A72A0FB020302FB9C
:10AC80000131C30B43EA4143E11A21EAE17140F289
:10AC9000E7304FF47A72002300EBC1304914FBF720
:10ACA0007FFA203602460B46B81925F06DF89AE770
:10ACB000B847002000170020000000202DE9F041D7
:10ACC0008AB00446FFF7D4FB00286CD02046FFF77B
:10ACD000CFFB524D47680446002642F20F782B689E
:10ACE0009F420CD043450AD0EB69DB7D3BB12B7E04
:10ACF000032B04D102232B762846FFF70DFE0136E5
:10AD00000A2E05F15805EAD1454D286808B90020FA
:10AD10002CE0C369227A197E914204D0426D01323F
:10AD200004BF62684265016862689142EFD01968A9
:10AD3000D0E904238A1843EBE173D4E90461B242F9
:10AD40008B4116DB237ADBB10123214602A88DF863
:10AD5000003027F04EFB6846FFF726FE217A286870
:10AD6000C1F10301C9B2FFF739FE02200AB0BDE804
:10AD7000F0810421FFF732FE2B68002BC7D0E1E7FA
:10AD80006068284A11780029C1D0012905D151698C
:10AD9000884202D1117E0029D6D10133282B02F13D
:10ADA0002802EFD1B3E7204600F0A4FF0028DDD051
:10ADB000204600F09FFF837A01469BB14368E03B49
:10ADC000072B02D80378072B0CD0174BD1E90402CC
:10ADD000D3E9025485429441BEBFC3E902024FF059
:10ADE00000441C600E4B18680028BFD04B68E03B45
:10ADF000072B8CD80B78072B89D1C3695B7D13B1E6
:10AE0000007E0028B2D002A802248DF8004028F06D
:10AE100022F86846FFF7C8FDA7E700BF001700202B
:10AE2000B8470020C01000200000002008B50346ED
:10AE300000690349036330F08FFC002008BD00BFA8
:10AE400015AF0200F8B52DED028B0C46B1F90410D8
:10AE5000054631B99FED2D0A84ED000ABDEC028B49
:10AE6000F8BDD4E9027657EA06004CD0A888C0198C
:10AE700046F10006121A63EB0603012A73F1000083
:10AE800041DB4FF47A7607EE901AA2FB062106FB0F
:10AE90000311E888D30B43EA414398424FEAE1317A
:10AEA0004FF000028A41B8EEE78A14DB98B16A7A63
:10AEB0008AB107EE100A07EE903AB8EEC70AF8EE2C
:10AEC000E77A07EE102A87EE800AF8EE470AFEF7C7
:10AED0009BFC28EE008A2B7ADFED0D6A07EE103A14
:10AEE000B8EEC77A27EE087AC7EE267A94ED007A94
:10AEF00077EE877ABDEEE70AB8EEC00A77EEC07A41
:10AF0000C4ED007AAAE7DFED017AEFE70000000068
:10AF100000007A442DE9F0412DED028B076B84B0DF
:10AF20007E68044630F0A5FD0D4602460B4680467D
:10AF300004F138013046FFF785FF2B46424604F105
:10AF400048013046F0EE408AFFF77CFFFDEEE87ADC
:10AF5000B0EE408A17EE903AFDEEC07A1BB217EEC3
:10AF6000902A15B2EBB1DFED2F7A3288F4EEE78A42
:10AF7000F1EE10FA4CD9DFED2C7AF4EEE78AF1EE1F
:10AF800010FA47F6FF7158BF0B4600200021CDE9AB
:10AF90000201B5FA85F149090091384602211DF0F8
:10AFA000D3FADDB1DFED1F7A7288B4EEE78AF1EEF5
:10AFB00010FA2FD9DFED1C7AB4EEE78AF1EE10FA21
:10AFC00047F6FF7348BF2B4600200021CDE9020160
:10AFD00001210091384602211DF0B6FAB4F93C3047
:10AFE00013B9B4F94C30BBB1307AC0034FF47A7264
:10AFF000002300F2E7300021FBF7D2F802460B46AF
:10B00000204604B0BDEC028BBDE8F04124F0BCBE8C
:10B01000064BBAE7054BD7E704B0BDEC028BBDE8A1
:10B02000F08100BF000000C700FEFF460080FFFF68
:10B0300030B5144B1A680546D0070DD51248D0E933
:10B040000620323240F10000954271EB000017DB20
:10B050001A6822F001021A6000201A6892070ED5C1
:10B06000094CD4E90624323244F10004954271EBD4
:10B070000404A3BF1A6822F002021A60013030BD36
:10B080000120EAE760480020781C002070B5094BD9
:10B09000094D1E7800241C702EB1284627F059F95E
:10B0A0000134B44201DB304670BD2035284627F01C
:10B0B0004DF9F5E75C970020781C00202DE9F04F52
:10B0C00043488FB030F056FB424B00261E60424B87
:10B0D000B3F900A047F6FF739A4564D03F4F482369
:10B0E0004FF6FF7203FB06F0C419395A914251D151
:10B0F0003B49DFF8FCB00A789BF8009001320A70F7
:10B1000038491FFA8AF324223B5202FB031308300A
:10B11000B3F908803449C845A8BFC84628EAE87290
:10B120005201384430F071FD4FEA4813DFF8B8C0DF
:10B13000A4F80280C6460793F14539DC482303FB97
:10B14000067708ADA9EB08091822002128463C6AB9
:10B150008BF8009030F081FD0AF129030993FF2359
:10B160008DF83030214BE217C3E90042CDE90A42A5
:10B170001C4A24230AFB032A012304930EAB13E980
:10B180000F008DE80F000AF1140095E80C0027F07D
:10B1900034F804E00136042EA4D1FFF777FF0E4AFD
:10B1A00047F6FF7313800FB0BDE8F04FFFF76EBF97
:10B1B000079B0CEB03050FCD64460FC495E80F0009
:10B1C0000EF1010E84E80F000CF1200CB4E700BF73
:10B1D000281B002060480020540B0020581B002032
:10B1E0005B970020B0D20500781C002010000020E2
:10B1F0005C97002008B5134B134914484FF6FF72B3
:10B200001A80A3F84820A3F89020A3F8D82030F0A3
:10B21000A3FA0F4BD3F8802042F00102C3F880203C
:10B22000D3F8842042F00102C3F88420DA6F42F0A0
:10B230000202DA67D3F8802042F00202C3F88020CD
:10B24000002008BD581B002045B30200281B002029
:10B25000BC470020F8B53649364E0D78D6E90032A5
:10B26000DDBB03F100430133134335D06FF00044DD
:10B2700030F0FFFB4FF47A77A0FB070307FB0131A7
:10B28000C30B43EA4143A3424FEAD131A9414BDA10
:10B2900030F0EFFBA0FB070307FB0131C00B40EAD6
:10B2A0004140201A65EBD131C90341EA504140F2D7
:10B2B000E733C003C0184FF47A724FF0000341F136
:10B2C0000001FAF76DFF02460B461B4824F05CFDB7
:10B2D0000028A8BFC6E90045F8BD184908680968F4
:10B2E00010F0010F164814BF32246FF0004411F023
:10B2F000020FD0E9061518BF3224641845F1000585
:10B30000954208BF9C42E7D06FF000439D4208BFC2
:10B31000B4F1FF3FACD100230022C6E90023064868
:10B32000BDE8F84030F026BA00221346CDE700BF52
:10B330005C970020201B0020281B00206048002074
:10B34000781C002038B5114CD4E9003213431CD0CE
:10B3500030F08FFB03460D46D4E900014FF47A74B8
:10B36000A3FB043204FB0522DB0B43EA4243834286
:10B370004FEAD2328A4108DBFFF75AFE08B9FFF7DD
:10B380009DFEBDE83840FFF765BF38BD201B00209B
:10B390002DE9F04F9DB00446FFF76AF8002800F051
:10B3A00046812046FFF764F80446002800F05A81E1
:10B3B000067A002E00F09680AD4EAE4F3578D0E97B
:10B3C0000498002D4BD1D0F804A027F0EDFCAA4A38
:10B3D00007EB8A03864629464FF0010A18680AFAE5
:10B3E00001F738421AD0106920B10AFA0EFC1CEAA3
:10B3F000000F13D0A148B2F90AC0D0E900B01CEB8D
:10B400000B0B40EBEC7CD94578EB0C0C06DB9C4835
:10B41000D0F800C047EA0C07076001352432E1B1DB
:10B42000002D00F01F813378022B40D1FFF712FF6F
:10B430000024934B1A68D20752D41B689B0740F133
:10B44000138101233278022A03D18E4A012D138001
:10B4500018D020461DB0BDE8F08F0121BEE7484658
:10B460004146FFF7E5FD864B626857F822501A689F
:10B47000377815401D603B463DB9022F17D1FFF7C5
:10B48000E9FE2C46FFF71AFEE3E76A1E154006D1D7
:10B49000022F0BD12C46FFF7DDFE0125C9E7022F55
:10B4A0001CD1FFF7D7FE00243D46C2E70125764FA9
:10B4B00007EB43175A1C21460CA83C460CAF3270D0
:10B4C00026F097FF0FCF0FC497E80F0084E80F0016
:10B4D000FFF7C0FE0224002DABD1D3E70225E6E73B
:10B4E0000023AFE7FFF7EAFD636809932369079339
:10B4F000664B674F1B7808900B93B9460B9B9E4297
:10B500000CDB089B012B40F3AD80214614A826F0EC
:10B5100070FF14A826F01AFF02249AE77B88B7F878
:10B5200000800693544B242202FB08334FF0000C9A
:10B53000B3F908300A93BE46E2460125069B5345FF
:10B5400013DC4837BCF1000F6FD0069A482303FB89
:10B550000693013A5A80484B242202FB083393F8A1
:10B560002030FBB115BB012473E7BCF1000F10D0F4
:10B570000EF1080BBBE80F00AEF118050FC59BE8F4
:10B580000F0085E80F0000250AF1010A0EF1200ED8
:10B59000D4E7DEF81430099A9A4214BF00254FF020
:10B5A000010CF1E7069B0A9A934220D114AC1822B1
:10B5B0000021204630F051FB08F129031593079B29
:10B5C000079ADB17CDE916232B4AFF238DF860304D
:10B5D000242303FB08280023049316AB0FCB8DE82C
:10B5E0000F0008F1140094E80C0026F006FE002D70
:10B5F000B9D0264B1C78013CE4B2A6421C7008D09E
:10B6000004EBC401482209EBC10102FB069030F0B3
:10B61000FCFA48225443002109EB040030F01DFBE2
:10B620004FF6FF7329F804309DE7013666E72046A0
:10B6300000F060FBB0B1204600F05CFB837A8BB178
:10B640004368E03B072B02D80378072B0AD0114B45
:10B65000D0E90412D3E9000388429341BCBF074BF1
:10B66000C3E900120024F4E66FF01504F1E600BF10
:10B670005C970020BC470020B0D2050018000020D5
:10B6800060480020540B0020781C00205B970020AD
:10B69000581B00201000002010B5094B00211A464D
:10B6A0005C68844205D15C7F1CB9582303FB0120F0
:10B6B00010BD01310A2903F15803F1D10020F7E749
:10B6C000B81C00202DE9F0410B4E337883B10B4CB0
:10B6D000DFF82C8000254FF0FF372046414601352A
:10B6E00030F03AF80A2D44F8247C04F15804F4D1DF
:10B6F00000203070BDE8F081780B0020E01C0020B5
:10B700002F2C050082B02DE9F84308A981E80C0030
:10B710000068DDE90A5726F01AFD099ED0F804807A
:10B720003046FFF7B9FF0446C0B9344B01461A460C
:10B730005868013031D158235943002354185350CD
:10B74000002000219DF830202272C4E90801012266
:10B750006660C4F818802275A283A3774FF00109B0
:10B7600004F1280684F81490304630F003F877305E
:10B7700008BF84F81D902368D8F8042093423CBF8A
:10B78000013323602268D8F804309A420FD12A4648
:10B790003B46204627F01AFA04E001310A2903F15A
:10B7A0005803C5D1BDE8F843002002B07047A36933
:10B7B0001B685D1947F10007C4E9085730F059F9D3
:10B7C0004FF47A72A0FB020302FB0131C30B43EA80
:10B7D0004143EC1A002CE5DD4FF4004540F2E73020
:10B7E00000214FF47A720023E4FB0501FAF7D8FC3C
:10B7F00002460B46304624F0C7FAD3E7B81C0020B7
:10B80000F8B5FEF735FE044628B3037A1BB3164D90
:10B810000026012755F8243C5A1C1ED0626893422A
:10B820001BD028462FF0A6FF15F80A3C773008BF3A
:10B8300005F80B7C8BB90D4D582303FB06552846A4
:10B84000D4E9042327F0C2F92B7D23B9D4E90423DA
:10B85000284627F075F90020F8BD01360A2E05F1BB
:10B860005805D7D1F7E700BFE01C0020B81C002026
:10B8700010B50D4B1C78012C04D0022C0BD00024E9
:10B88000204610BD01F04EFE0028F9D100F0E4FB87
:10B890004400E4B2F4E700F0DFFB0028F0D1BDE89B
:10B8A000104001F03FBE00BF790B002008B50B4BE4
:10B8B0001B78012B07D0022B09D0002B0CBF0020D6
:10B8C0006FF0850008BDBDE8084027F07CBCFEF79E
:10B8D000F7FFBDE80840013000F002BE64480020D8
:10B8E00008B50B4B1B78012B07D0022B09D0002B7E
:10B8F0000CBF00206FF0850008BDBDE8084027F0B0
:10B900006ABCFEF7E1FFBDE80840013000F00EBE62
:10B910006448002002490348012203F0B7B800BF81
:10B92000790B002052100600F7B50C4615461B494E
:10B93000002207461E4628F020FC024648B1012C92
:10B9400029D1174922463046A84700EAE07003B0E3
:10B95000F0BD1449384628F010FC0028F7D0012C1F
:10B9600019D122460DF107013046A8470028EEDB29
:10B970009DF807300A4D0C48012B0CBF0223012310
:10B980002B7028F0F3FB0028E1D122462946074816
:10B9900003F07CF8DBE76FF01500D8E75C100600D9
:10B9A000790B002071100600671006005210060087
:10B9B00013B5094909482FF0CFFEFFF759FF6C4630
:10B9C0000146204627F04EF994E80300044B83E833
:10B9D0000300002002B010BD15B90200282000208D
:10B9E0006448002082B00DF1080C0CE903001946F0
:10B9F0009DF80030012B104606D0022B06D053B91B
:10BA0000064A02B025F094B8054AFAE7019B054AB8
:10BA100002B025F08DB8044AF3E700BF7B100600A2
:10BA200080100600841006008B10060008B50B4B32
:10BA30001B78012B07D0022B09D0002B0CBF002054
:10BA40006FF0850008BDBDE8084027F0CCBBFEF7CD
:10BA50003FFFBDE80840013000F090BD6448002081
:10BA600030B589B0FFF704FF01AD0F4C0146284601
:10BA700027F0F8F894E80C0095E8030027F000F9A7
:10BA800080B927F025F995E803000A2305AA84E880
:10BA90000300FFF7A7FF94E8030003AB83E803006C
:10BAA00000F022F809B030BD6448002008B5074B0B
:10BAB0001A78824208D018704FF4F012002304481C
:10BAC00024F096F9FFF7CCFF002008BD790B002089
:10BAD00028200020034B1B78012B14BF01200220DB
